:10100000E03F00028D110000594300006D430000D5
:101010008143000095430000A94300000E5DFEFDE2
:10102000000000000000000000000000611300004C
:101030005111000000000000C11300000514000061
:101040005D1100005D1100005D1100005D110000E8
:101050005D1100005D1100005D1100005D110000D8
:101060005D1100005D1100005D1100005D110000C8
:101070005D1100005D1100005D1100005D110000B8
:101080005D1100005D1100005D1100005D110000A8
:101090005D1100005D1100005D1100005D11000098
:1010A0005D1100005D1100005D110000ED2D0000DC
:1010B0005D1100005D1100005D110000D5310000E0
:1010C0005D1100005D1100005D110000F5310000B0
:1010D0005D1100005D1100005D1100005D11000058
:1010E0005D1100005D1100005D1100005D11000048
:1010F0005D1100005D1100005D1100007C630000C7
:10110000000000023C0100007C630000004000027F
:10111000000000007C63000000800002000000006E
:10112000400100027C30000000400002000000008E
:101130000080000200000000FEE700BFFEE700BFE5
:10114000FEE700BFFEE700BFFEE700BFFEE700BF0F
:10115000FEE700BFFEE700BFFEE700BFFEE700BFFF
:1011600010B4002304E004680C600433043004313C
:101170009342F8D310BC7047002303E000220260C2
:10118000043304308B42F9D3704700BF10B50F4BC6
:1011900007E003F10C049A6859681868FFF7E0FF4C
:1011A00023460B4A9342F4D306E01C46596854F890
:1011B000080BFFF7E1FF2346064A9342F5D30122CD
:1011C000054B1A6004F06EFAFEE700BFFC10000049
:1011D0002011000038110000D8400740FFFFFFFF3A
:1011E000FFFFFFFFFFFFFFFFFFFFFFFFFFFFFFFF0F
:1011F000FFFFFFFFFFFFFFFFFFFFFFFFFFFFFFFFFF
:10120000FFFFFFFFFFFFFFFFFFFFFFFFFFFFFFFFEE
:10121000FFFFFFFFFFFFFFFFFFFFFFFFFFFFFFFFDE
:10122000FFFFFFFFFFFFFFFFFFFFFFFFFFFFFFFFCE
:10123000FFFFFFFFFFFFFFFFFFFFFFFFFFFFFFFFBE
:10124000FFFFFFFFFFFFFFFFFFFFFFFFFFFFFFFFAE
:10125000FFFFFFFFFFFFFFFFFFFFFFFFFFFFFFFF9E
:10126000FFFFFFFFFFFFFFFFFFFFFFFFFFFFFFFF8E
:10127000FFFFFFFFFFFFFFFFFFFFFFFFFFFFFFFF7E
:10128000FFFFFFFFFFFFFFFFFFFFFFFFFFFFFFFF6E
:10129000FFFFFFFFFFFFFFFFFFFFFFFFFFFFFFFF5E
:1012A000FFFFFFFFFFFFFFFFFFFFFFFFFFFFFFFF4E
:1012B000FFFFFFFFFFFFFFFFFFFFFFFFFFFFFFFF3E
:1012C000FFFFFFFFFFFFFFFFFFFFFFFFFFFFFFFF2E
:1012D000FFFFFFFFFFFFFFFFFFFFFFFFFFFFFFFF1E
:1012E000FFFFFFFFFFFFFFFFFFFFFFFFFFFFFFFF0E
:1012F000FFFFFFFFFFFFFFFFFFFFFFFFFFFFFFFFFE
:101300004FF0A00383F31188BFF36F8FBFF34F8FAC
:10131000FEE700BF06480068006880F3088862B6F0
:1013200061B6BFF34F8FBFF36F8F00DF00BF0000C8
:1013300008ED00E04FF0807340F8043C40F8081CD2
:10134000034B40F80C3C40F8202C4038704700BF5D
:1013500001130000FFFFFFFFFFFFFFFFFFFFFFFF85
:10136000074B19680868B0E8F00F80F30988BFF3ED
:101370006F8F4FF0000080F311884EF00D0E704714
:10138000140200024FF0A00383F31188BFF36F8FA4
:10139000BFF34F8F024A136801331360704700BFD9
:1013A00000000002034A1368013B13600BB983F38A
:1013B0001188704700000002FFFFFFFFFFFFFFFFE3
:1013C000EFF30980BFF36F8F0D4B1A6820E9F00F20
:1013D00010602DE908404FF0A00080F3118800F064
:1013E00077FB4FF0000080F31188BDE808401968D2
:1013F0000868B0E8F00F80F30988BFF36F8F70477B
:101400001402000208B54FF0A00383F31188BFF364
:101410006F8FBFF34F8F00F0EFF918B14FF080528C
:10142000024B1A60002383F3118808BD04ED00E02D
:10143000064B1B68064AA2FB03239B09013B054A96
:1014400013600722044B1A60704700BFB8310002D6
:10145000D34D621014E000E010E000E008B5094B45
:101460001A6842F078721A601A6842F060421A6094
:10147000FFF7DEFF0022044B1A60FFF74BFFFFF778
:101480003FFF00BF20ED00E0000000020A4B1B6898
:101490001B680BB9012300E0002323B14FF0FF329A
:1014A000064B1A607047044B1B68DB68DB685A68A0
:1014B000024B1A60704700BF440100023402000270
:1014C00010B50446006B00F0F7FE204600F0F4FE75
:1014D00010BD00BFF8B5074614460E4621B980007E
:1014E00000F098FE054600E00D4665B11CB960208D
:1014F00000F090FE04460CB1256305E026B92846AD
:1015000000F0DAFE00E0002424B1BA00A521206B2F
:1015100004F0E4F82046F8BD70B5044615460023F3
:1015200006E0C85CE21882F83400CA5C12B10133EC
:10153000132BF6D9002384F84730072D00D907254F
:10154000E562256500266665201D00F063FC04F158
:10155000180000F05FFC2461C5F10805A561646214
:10156000A66584F85C6070BD38B5002407E004EB24
:10157000840293000E48184400F040FC0134072C0C
:10158000F5D90C4D284600F039FC0B4C204600F0F4
:1015900035FC0A4800F032FC094800F02FFC0948ED
:1015A00000F02CFC084B1D60084B1C6038BD00BFD0
:1015B000680100023C020002500200021802000210
:1015C0004C010002640200024401000260010002BA
:1015D00038B504460D461D4B1868043000F044FC35
:1015E00050B91A4B1B68DA6A012303FA02F2184950
:1015F0000B6823EA02030B60B4F1FF3F07D135B15A
:10160000124B19680431134800F008FC38BD124B26
:101610001A6814440D4A126854601B689C4207D231
:101620000E4B1868094B1968043100F003FC38BDF3
:101630000B4B1868054B1968043100F0FBFB094B94
:101640001B689C4201D2074B1C6038BD140200028B
:10165000780200026402000230020002600100020F
:1016600044010002340200022DE9F04782B08046B6
:101670008A46164699460B9F0D9A0C993046FFF7FD
:1016800029FF00284BD00446036B06F18045013D3D
:1016900003EB850525F0070500960E9B0A9A514637
:1016A000FFF73AFF4A4641462846FFF743FE2060CF
:1016B00007B13C60FFF766FE254A136801331360EB
:1016C000244B1B683BB9234B1C601368012B0DD1C5
:1016D000FFF74AFF0AE0204B1B683BB91D4B1B6814
:1016E000DB6A0A9A9A4201D31A4B1C601B4A1368A0
:1016F00001331360A364E36A012505FA03F0184976
:101700000A6802430A6003EB83039A00211D15480F
:10171000104400F083FBFFF745FE284601E04FF040
:10172000FF30012810D10C4B1B686BB1094B1B68B3
:10173000DB6A0A9A9A4207D94FF080520A4B1A6024
:10174000BFF34F8FBFF36F8F02B0BDE8F08700BFCC
:1017500010020002140200024801000238020002D6
:10176000780200026801000204ED00E000B587B0D5
:101770000023049303930293124A01920093802260
:1017800011491248FFF770FF012801D100F0E2FB78
:10179000012813D14FF0A00383F31188BFF36F8F9B
:1017A000BFF34F8F4FF0FF32094B1A600122094BF4
:1017B0001A600022084B1A60FFF750FE07B05DF870
:1017C00004FB00BF2C020002F4580000A91A00001C
:1017D000340200024801000230020002024A13688B
:1017E00001331360704700BF08020002014B186804
:1017F000704700BF30020002F8B5374B1B68002B62
:101800005DD1364B1A6801321A601F685FB9344ADD
:101810001168344B186810601960334A136801333B
:101820001360FFF733FE314B1B689F4203D2002643
:101830003AE0012600E00026294B1B681B680BB923
:10184000012300E0002323B14FF0FF32274B1A6041
:101850002AE0234B1B68DB68DC6863689F4202D286
:10186000224A136020E0251D284600F0FDFAA36AF5
:101870001BB104F1180000F0F7FAE36A012202FA42
:1018800003F11B4802680A43026003EB83039A00DA
:1018900029461848104400F0C1FAE26A164B1B684A
:1018A000DB6A9A42C5D2C7E7134B1B68DB6A03EBBE
:1018B00083039A000F4B9B58012B06D806E00F4A72
:1018C000136801331360002600E001260C4B1B68EF
:1018D00003B101263046F8BD0802000230020002C2
:1018E00044010002600100024001000234020002D3
:1018F0007802000268010002140200026401000282
:101900007C02000238B5FFF73DFD2F4B1A68013A03
:101910001A601B68002B50D12C4B1B6833BB002472
:101920004EE02B4BDB68DC6804F1180000F09CFAF9
:10193000251D284600F098FAE36A012202FA03F115
:10194000244802680A43026003EB83039A00294695
:101950002148104400F062FAE26A204B1B68DB6AFF
:101960009A4204D301221E4B1A6000E00024184B57
:101970001B68002BD5D10CB1FFF788FD194B1B68F4
:1019800053B90DE0FFF738FF10B10122144B1A6074
:10199000144A1368013B1360124B1B68002BF1D1F2
:1019A0000F4B1B685BB14FF080520F4B1A60BFF3B7
:1019B0004F8FBFF36F8F012402E0002400E000246A
:1019C000FFF7F0FC204638BD0802000210020002BA
:1019D00018020002780200026801000214020002EC
:1019E0007C0200026401000204ED00E038B5054607
:1019F0000C46FFF7F3FE154B18682A68131990423E
:101A000005D29A4209D9984209D300220CE09A42A1
:101A100007D8984207D3002206E0002204E0012202
:101A200002E0012200E001222B601AB10021181A05
:101A3000FFF7CEFDFFF766FF38B94FF08052044B39
:101A40001A60BFF34F8FBFF36F8F38BD30020002B3
:101A500004ED00E010B51BE0FFF7C0FE0F4B1C6863
:101A6000FFF750FFA4B1FFF78DFC0C4BDB68DC687F
:101A7000201D00F0F9F90A4A1368013B1360094A76
:101A80001368013B1360FFF78DFC2046FFF718FD3C
:101A9000044B1B68002BDFD110BD00BF4C010002BE
:101AA000100200020C02000208B5FFF7D3FF064B3C
:101AB0001B68012BF9D94FF08052044B1A60BFF319
:101AC0004F8FBFF36F8FF0E76801000204ED00E075
:101AD00038B51E4B1B681BB101221D4B1A6038BD67
:101AE00000221B4B1A601B4B1A6812681B681B6B89
:101AF0009A4205D8174B18681968343100F0C2FEB5
:101B0000154B1B68B3FA83F3DBB2C3F11F03134D0C
:101B10009900CA18900028444268546844601944E7
:101B20008A0008322A44944205D1606803EB83019D
:101B30008A002A44506003EB83039A00074B1A443F
:101B40005368DA68034B1A6038BD00BF0802000210
:101B50007C02000214020002780200026801000206
:101B600010B50C46044B1968183100F063F90121D7
:101B70002046FFF72DFD10BD1402000238B50D46BA
:101B80001446064B1968183100F048F90CB14FF0B3
:101B9000FF3521462846FFF71BFD38BD1402000221
:101BA00038B5C368DC6804F11805284600F05CF914
:101BB000134B1B68A3B9251D284600F055F9E36AAD
:101BC000012202FA03F10F4802680A43026003EBA4
:101BD00083039A0029460C48104400F01FF903E0E3
:101BE00029460A4800F01AF9E26A094B1B68DB6AC9
:101BF0009A4203D90120074B186038BD002038BD38
:101C000008020002780200026801000218020002C5
:101C1000140200027C020002034B1B680360034BAA
:101C20001B684360704700BF4001000230020002A1
:101C300038B504460D46FFF7A5FB114B1A682B6813
:101C4000B3F1FF3F13D020680E490968884202D0E3
:101C500061688A420DD26168501A83420BD98A1A90
:101C600013442B602046FFF7D7FF002404E0002434
:101C700002E0012400E00124FFF794FB204638BD78
:101C800030020002400100020122014B1A6070473D
:101C90007C020002054B1B6823B1054B1B681BB976
:101CA0000220704701207047002070474801000261
:101CB0000802000200284AD038B50246C36A244907
:101CC0000968C96A8B4241D28169002905DB204934
:101CD0000968C96AC1F108018161506903EB830396
:101CE00099001C4B1944884201D1012300E00023D4
:101CF00043B31446151D284600F0B6F870B9E36AE0
:101D000003EB83018A0013498A583AB9012202FA87
:101D100003F311490A6822EA03030B600C4B1B68AA
:101D2000DB6AE362012202FA03F10B4802680A430C
:101D3000026003EB83039A0029460648104400F032
:101D40006DF838BD024B1B68DB6AD36238BD704743
:101D5000140200026801000278020002002834D058
:101D600038B50346426D013A4265C06A196D884232
:101D70002DD072BB1C461D1D284600F075F870B9A9
:101D8000E36A03EB83018A0013498A583AB90122B6
:101D900002FA03F311490A6822EA03030B60236D78
:101DA000E362C3F10802A261012404FA03F00B49C3
:101DB0000A6802430A6003EB83039A002946064837
:101DC000104400F02BF8204638BD0020704700205A
:101DD00038BD002038BD00BF680100027802000253
:101DE000054B1B6823B1044B1A68536D01335365CF
:101DF000014B1868704700BF1402000200F108038D
:101E000043604FF0FF328260C360036100230360D0
:101E1000704700BF00230361704700BF43684B60F9
:101E20009A688A609A685160996008610368013312
:101E30000360704730B40D68B5F1FF3F01D102690E
:101E400007E000F1080200E01A4653681C68A5424A
:101E5000FAD253684B6099608A60516008610368E8
:101E60000133036030BC7047036942688168916048
:101E70008268416851605A68904201D182685A6014
:101E8000002202611868013818607047064B1A6812
:101E90001368B3FA83F35B09036013B9D368186856
:101EA00070470020704700BF8002000208B5416003
:101EB000006191420AD8D21A83699A4211D2011D57
:101EC0000A4B1868FFF7B6FF002008BD9A4201D2FE
:101ED000994208D2011D064B1868FFF7ABFF00209E
:101EE00008BD012008BD012008BD00BFB4020002EA
:101EF0008002000230B583B0FFF744FA0F4B1B6835
:101F0000C3B90F4D2846FFF779FF0E4C2046FFF767
:101F100075FF0D4B1D600D4B1C6000220092134697
:101F20000C21022000F0D2FA044B186010B10849CD
:101F300000F036FCFFF736FA03B030BDAC02000209
:101F4000840200029802000280020002B402000231
:101F5000FC58000000B587B0FFF7CCFF094B1B68A9
:101F600063B100230493039302930193022200922E
:101F7000502205490548FFF777FB00E0002007B035
:101F80005DF804FBAC02000204590000D1210000FE
:101F900030B585B0134C256805B31C4601910292FB
:101FA0000390052913DCFFF775FE022807D10023F3
:101FB000089A01A90B48006800F0A6FA0FE0002378
:101FC0001A4601A90748006800F09EFA07E00023BE
:101FD000224601A9284600F015FB00E0002005B0CC
:101FE00030BD00BFAC02000270B582B01FE0DB68FC
:101FF0001E68DC68251D2846FFF736FF636A204609
:102000009847E369012B12D1A36933449E4207D25A
:102010006360246129460C4B1868FFF70BFF06E04C
:10202000002100910B4632462046FFF7B1FF064BD8
:102030001B681A68002ADAD1044A1068024908604D
:10204000136002B070BD00BF80020002B402000243
:1020500038B50546FFF7CAFB0446074B1B68984294
:1020600004D2FFF7C1FF01232B6001E000232B60A6
:10207000014B1C60204638BDB002000270B582B032
:1020800005460E460E4B1B68DB68DC68201DFFF71B
:10209000EBFEE369012B0ED1A1692B4632462944A0
:1020A0002046FFF703FF30B1002100910B462A467E
:1020B0002046FFF76DFF636A2046984702B070BD67
:1020C0008002000270B582B006460C46FFF786FB20
:1020D00001A8FFF7BDFF019B1BBB054644B9B042F9
:1020E00006D3FFF70FFC29463046FFF7C7FF1AE07B
:1020F0002CB10E4B1B681C68B4FA84F464092246A8
:10210000711B0B4B186800F05FFBFFF7FBFB50B92E
:102110004FF08052074B1A60BFF34F8FBFF36F8FA2
:1021200001E0FFF7EFFB02B070BD00BFB402000298
:10213000AC02000204ED00E030B587B03AE0039B4A
:10214000002B37DB059C636913B1201DFFF78CFE64
:1021500002A8FFF77DFF039B092B2BD8DFE803F0D4
:102160000505052A1E2705052A1E0499A5690B46A3
:10217000024629442046FFF799FED8B1636A2046FB
:102180009847E369012B15D1A269002100910B4604
:10219000049802442046FFF7FBFE0BE00499A1617E
:1021A0000346024601442046FFF780FE02E0204637
:1021B00000F082F800231A4603A90448006800F0E2
:1021C00055FA0028BBD107B030BD00BFAC020002F9
:1021D00000B583B001A8FFF759FE0199FFF772FF20
:1021E000FFF7AAFFF6E700BF074B23F00703074AF4
:1021F000136000205060064A42F20871516010607E
:1022000059601A60704700BFC8020002B80200029D
:10221000D029000270B50446FFF7E0FA224B1B6894
:1022200023B9FFF7E1FF01221F4B1A6034B10834D4
:1022300014F0070F02D024F007040834621E42F2A3
:1022400006739A4228D819490B6801E019461346CB
:102250005A68944202D91A68002AF7D1144A934264
:102260001CD00D6808351A680A605A68121B102ABB
:102270000CD91E1972605C6074680C4900E011464C
:102280000A6850688442FAD832600E605968094A78
:1022900013685B1A136002E0002500E00025FFF7D9
:1022A00031FB284670BD00BFD8290002B8020002E9
:1022B000D029000204000002D0B170B50546A0F19B
:1022C0000806FFF78BFA55F8044C0A4A00E01A4654
:1022D000136859688C42FAD845F8083C166055F8DE
:1022E000043C054A11680B441360FFF70BFB70BDFB
:1022F000704700BFB80200020400000210B5044697
:10230000FFF740F8A26BE36B9A4201D1012400E091
:102310000024FFF747F8204610BD00BF10B5044663
:10232000FFF730F8A36B0BB9012400E00024FFF79E
:1023300039F8204610BD00BF10B5144611B100FB9E
:1023400001F000E000205430FFF764FF034610B1B5
:1023500000F154022260184610BD00BF38B5044693
:102360001546026C3AB903685BBB4068FFF7F6FCA0
:10237000002363602CE06DB9806803F0ADF9A268BA
:10238000236C1344A360626893421CD32368A36048
:1023900000201DE0C06803F09FF9236C5B42E268F7
:1023A0001A44E26021688A4202D262681344E36000
:1023B000022D0AD1A36B53B1A36B013BA363002091
:1023C00006E0002004E0002002E0002000E0002001
:1023D000A36B0133A36338BD026C72B110B5C3683F
:1023E0001344C3604468A34201D30368C3600C462E
:1023F000C168204603F070F910BD704710B504465F
:10240000FEF7C0FF0BE0636A63B104F12400FFF73D
:10241000C7FB08B1FFF738FCA36C013BA364A36CB6
:10242000002BF0DC4FF0FF33A364FEF7BBFFFEF799
:10243000A9FF0BE0236963B104F11000FFF7B0FBC3
:1024400008B1FFF721FC636C013B6364636C002BF4
:10245000F0DC4FF0FF336364FEF7A4FF10BD00BF54
:1024600038B504460D46FEF78DFF2168E26B236CFC
:1024700003FB021060600020A063A160013A02FB30
:102480000313E3604FF0FF336364A3647DB92369F2
:10249000ABB104F11000FFF783FB80B14FF0805225
:1024A000094B1A60BFF34F8FBFF36F8F07E004F142
:1024B0001000FFF7A3FC04F12400FFF79FFCFEF7D8
:1024C00071FF012038BD00BF04ED00E070B582B09F
:1024D00006460D4602AC44F8042D2246FFF72CFFB9
:1024E000044670B10DB9206001E0019B0360E66312
:1024F000256401212046FFF7B3FF9DF8183084F8CA
:102500005030204602B070BDF0B585B004460F468D
:1025100001921E460025FEF735FFA26BE36B9A423F
:1025200001D3022E21D1324639462046FFF716FF4D
:10253000636A6BB104F12400FFF732FB88B14FF0FE
:1025400080522F4B1A60BFF34F8FBFF36F8F08E09D
:1025500038B14FF080522A4B1A60BFF34F8FBFF350
:102560006F8FFEF71FFF012048E0019B1BB9FEF7AC
:1025700019FF002042E01DB902A8FFF74DFB01251D
:10258000FEF710FFFFF72AF9FEF7FCFE636CB3F1CC
:10259000FF3F01D100236364A36CB3F1FF3F01D17E
:1025A0000023A364FEF7FEFE01A902A8FFF740FB8B
:1025B000F0B92046FFF7A2FEA0B1019904F1100086
:1025C000FFF7CEFA2046FFF719FFFFF79BF9002827
:1025D000A1D14FF080520A4B1A60BFF34F8FBFF367
:1025E0006F8F98E72046FFF709FFFFF78BF992E717
:1025F0002046FFF703FFFFF785F9002005B0F0BD87
:1026000004ED00E070B5EFF311854FF0A00484F302
:102610001188BFF36F8FBFF34F8F866BC46BA642D9
:1026200001D3022B18D1164604461A46FFF796FE30
:10263000A36CB3F1FF3F0AD1636A7BB104F12400BC
:10264000FFF7AEFA60B16EB1012030600BE0A36C11
:102650000133A364012006E0002004E0012002E031
:10266000012000E0012085F3118870BDF0B585B030
:1026700004460F4601921E460025FEF783FEA36B1B
:102680008BB3E56839462046FFF7A6FEBEB9A36BBB
:10269000013BA363236813B9FFF7A2FB60602369C2
:1026A000EBB104F11000FFF77BFAC0B14FF080529C
:1026B0003A4B1A60BFF34F8FBFF36F8F0FE0E560A7
:1026C000636A63B104F12400FFF76AFA38B14FF08E
:1026D0008052324B1A60BFF34F8FBFF36F8FFEF7FC
:1026E00061FE012057E0019B1BB9FEF75BFE002055
:1026F00051E01DB902A8FFF78FFA0125FEF752FE3F
:10270000FFF76CF8FEF73EFE636CB3F1FF3F01D1BB
:1027100000236364A36CB3F1FF3F01D10023A364E2
:10272000FEF740FE01A902A8FFF782FA38BB204657
:10273000FFF7F4FDE8B1236833B9FEF723FE6068C4
:10274000FFF7B8FAFEF72EFE019904F12400FFF717
:1027500007FA2046FFF752FEFFF7D4F800288CD185
:102760004FF080520D4B1A60BFF34F8FBFF36F8F46
:1027700083E72046FFF742FEFFF7C4F87DE72046D7
:10278000FFF73CFEFFF7BEF82046FFF7C7FD002825
:102790003FF473AF002005B0F0BD00BF04ED00E0D2
:1027A00000230BE0074A52F8332032B9054A42F8B9
:1027B000331002EBC303586070470133092BF1D982
:1027C000704700BF0030000270B504460D46164643
:1027D000FEF7D8FD636CB3F1FF3F01D100236364C2
:1027E000A36CB3F1FF3F01D10023A364FEF7DAFD30
:1027F000A36B2BB93246294604F12400FFF7BEF93A
:102800002046FFF7FBFD70BD30B587B00B4D2C683F
:1028100014442C6042F20F75AC4201D900BFFDE7B1
:1028200000240494039402940B9C01940A9C009449
:1028300092B2FEF719FF07B030BD00BFDC290002DD
:1028400010B582B00446FEF7D1FF02AB43F8040D89
:1028500021461846FFF7CAF802B010BD08B501229C
:10286000074B1A70022000F0F1FB022000F03AFF43
:10287000022000F07DF80220FFF7E2FFF2E700BF40
:10288000E029000208B5064801F0D2FE4FF0A0038F
:1028900083F31188BFF36F8FBFF34F8FFEE700BF45
:1028A0000C59000000B583B001F062FC0B2002F06F
:1028B0003BF90B2002F04EF90C2002F00FF94FF01B
:1028C000E05001F0E5FF00F037F901F0D5FF08B165
:1028D00000F044F800F030F800F0CEFB0023019344
:1028E0004FF6FF720092802203490448FFF78CFFE5
:1028F00003B05DF804FB00BF2C5900005D28000008
:102900000138044BA3FB0023C01A03EB5000C0F3B3
:102910000710704785104208421E064BA3FB0213A6
:10292000D01A03EB50031809C0EB4010101AC0B2C4
:10293000704700BF8510420808B50022064B5A6751
:1029400001F03EFA00F06EFF00F0D8FF01F09AFAB5
:1029500001F0C8FB08BD00BF5030000208B501F00F
:1029600053FA00F069FF00F0DFFF01F0A5FA08BD9F
:1029700010B586B084B2204600F066FF204601F014
:10298000C3FA204601F048FA204600F0CFFF15E0D8
:10299000684601F043FA684600F07CFF684601F0A3
:1029A0009DFB684601F026F8684601F0A7FB074B3F
:1029B0005C6F1CB101F0CAFC6946A0476946002063
:1029C00000F03AFB0028E3D006B010BD5030000202
:1029D00038B1064B1A6B586B054B03EA0043D0180D
:1029E0007047024B586BC0F38A00704700000F40DD
:1029F0000000FF1F71B182B20E4B1A635A6B22F4B2
:102A0000FF5222F01F025A635A6BC0F30C4010436E
:102A100058637047074A536B23F4FF5323F01F0397
:102A20005363516B41F6FC7303EA80000843506323
:102A3000704700BF00000F40B0F1005F07D1064BA8
:102A40009A6AD86A054B03EA0043D0187047024BD4
:102A5000D86AC0F38A00704700000F400000FF1FD3
:102A6000B1F1005F0ED182B20F4B9A62DA6A22F4A2
:102A7000FF5222F01F02DA62DA6AC0F30C40104300
:102A8000D8627047084B4FF6FF729A62DA6A22F4F6
:102A9000FF5222F01F02DA62D96A41F6FC7202EAA2
:102AA00080000843D862704700000F407F22074B28
:102AB0005A62064B1B6A13F4004FFAD1034B18629B
:102AC000024B1B6A13F4004FFAD1704700000F400D
:102AD000890041F0FB01074B5962064B1B6A13F456
:102AE000004FFAD1034B1862024B1B6A13F4004FDC
:102AF000FAD1704700000F4010B50446FFF7D6FF2B
:102B0000044A536B43F40043536300212046FFF70C
:102B1000DFFF10BD00000F4010B50446FFF7C6FFF1
:102B2000044A536B23F40043536300212046FFF70C
:102B3000CFFF10BD00000F40002308E003F1C801E3
:102B4000324A02EB8102002151600133DBB2002BDB
:102B5000F4D010B52D4C012384F83430214641F8CF
:102B6000383B18230A2204F5947001F01BFB18234C
:102B70000A2204F5A07104F50C7001F013FB01F0BA
:102B80009BFE272001F0AAFF272001F0CDFF272080
:102B900001F0E0FF1E4A4B2313601E4B1B681E49C9
:102BA000A1FB0313DB0C013B03F03F0343F40C5385
:102BB000D3600024C2F8804104E0601CC0B2FFF77B
:102BC000ABFF01341F2CF8DD4FF00062134B1A608D
:102BD000134B80225A66C3F8A8201921612001F006
:102BE00073FE2A21622001F06FFE08480123C822EB
:102BF00000F5177100F5127001F0D4FA044A136859
:102C000023F041031360002010BD00BFE82900023B
:102C100000000F40B831000283DE1B4300E100E0FA
:102C200000800F402DE9F8430E4617461D4672B648
:102C3000002423E0404B1A680123A34013421BD019
:102C4000601CC0B2FFF732FFB5F1005F14BF4FF058
:102C500000084FF001084046FFF7BAFEB0420BD122
:102C60004FF00050FFF7E8FEB84205D1334B5B6BE5
:102C7000C3F38033434505D00134E4B21F2CD9D9C6
:102C8000002100E0012100294ED100234AE02A4A18
:102C9000126899464FF0010808FA03F812EA080F83
:102CA0003ED10133DCB22046FFF736FF2046FFF766
:102CB000FDFE29463846FFF7D3FE204BDA6A42F480
:102CC0004042DA6200225A63B5F1005F14BF00216E
:102CD00001213046FFF78EFEB5F1005F05D1174A9E
:102CE000536B43F48043536304E0144A536B23F45F
:102CF000804353634FF4A452104B9A630021204643
:102D0000FFF7E6FE2046FFF7F7FE0B4A136843EA9B
:102D10000803136049460A4801F08AFC012103E0D8
:102D20000133DBB21F2BB2D909B1002000E0202013
:102D300062B6BDE8F88300BFE829000200000F403A
:102D400034590000264BD3F8003113F0010F45D160
:102D5000244B93F83430002B40D000B587B069463F
:102D6000214801F051FA002835D172B60120FFF751
:102D7000D3FE0499B1F1005F14BF00210121029834
:102D8000FFF738FE164B5B6B049AB2F1005F02D17D
:102D90004FF4604201E04FF420421A43104B5A6353
:102DA0009DF80C2042F4094242F080029A63BDF87B
:102DB0000020DA63BDF802201A64BDF804205A64CA
:102DC000BDF806209A6401210846FFF781FE012024
:102DD000FFF792FE62B607B05DF804FB704700BFD4
:102DE00000000F40E8290002182C00022DE9F041F4
:102DF00088B0414B1B690793079B202B69D83E4B3A
:102E0000D3F84021D3F8447142EA07475EE0012538
:102E1000A5403D4254D072B6601CC0B2FFF746FEDA
:102E2000002C46D0344B5B6B13F4804F02D04FF034
:102E3000005000E0002004902F4EB36B03F00F030E
:102E40008DF80C30003018BF0120FFF7C1FD80461F
:102E50000290F36BADF80030336CADF80230736C58
:102E6000ADF80430B36CADF8063001F07FFC00F52E
:102E7000C060804519D1049BBBB9009A1F4B9A4290
:102E800013D19DF80C30042B08D80EE0311D694495
:102E90001B4801F091F90136F6B200E000269DF8DA
:102EA0000C30043B9E42F1DB03E06946154801F01B
:102EB00083F927EA050762B614B90020FFF742FF3D
:102EC0000134E4B200E000241F2CA0D9002FFAD175
:102ED00009E0094B5B6813F0800F04D0064A1368C1
:102EE00023F001031360044A536823F0180353606E
:102EF00008B0BDE8F08100BF00000F4022FF5F0076
:102F0000302C0002102B00020B4B5B6813F0800F7B
:102F10000BD1094B5B6813F0200F08D1064B5B689F
:102F200013F0400F05D100207047032070470420A4
:102F300070470520704700BF00000F4038B50446B9
:102F40000D46314B93F834306BB915245AE02046C6
:102F5000FFF7DAFF78B94FF080522C4B1A60BFF3BD
:102F60004F8FBFF36F8F2A4BD3F8003113F0010F4F
:102F7000EDD1002400E02B24002C43D172B60120B7
:102F8000FFF7CAFD2969B1F1005F14BF00210121DB
:102F9000A868FFF72FFD1E4B5B6B2A69B2F1005F3B
:102FA00002D14FF4604201E04FF420421A43184B23
:102FB0005A632A7B42F4094242F080029A632A88CB
:102FC000DA636A881A64AA885A64EA889A640121D2
:102FD0000846FFF77DFD0120FFF78EFD62B6002257
:102FE0000B4BD3F8003113F0010F05D0084B5B6891
:102FF00013F0E00F02D103E0012201E001222B24B3
:10300000002AEDD0204638BDE829000204ED00E09A
:1030100000000F4008B50146014801F0F5F808BD71
:10302000302C000208B572B6024801F0C5F862B64D
:1030300008BD00BF182C000208B572B6024801F0A6
:10304000E3F862B608BD00BF102B000208B5094ABC
:10305000B2F94432002B03DD1B1AA2F8443205E01A
:1030600023B94FF6FF72034BA3F844220020FFF769
:1030700069FE08BDE829000270B5404B00241C80A1
:103080005C8021464FF0804001F04AFC3C494FF003
:10309000804001F06BFC4FF08040C46601F078FC8A
:1030A0004FF080431B6813F0804FF9D1344E314606
:1030B0004FF0804001F05AFC01214FF0804001F0B8
:1030C0008FFC4FF000422F4B1A602F4D0024AC6153
:1030D000022001F00DFC6C61032001F009FC2C6161
:1030E000042001F005FCEC60052001F001FCAC605F
:1030F000062001F0FDFBC5F88040082001F0F8FB38
:10310000EC67092001F0F4FB2C600A2001F0F0FBD1
:10311000A5F5F0252146284601F002FC3146284657
:1031200001F024FCEC66284601F032FC174B1B68CA
:1031300013F0804FFAD1154C1149204601F016FCCE
:103140000121204601F04CFC08220E4B5A600E4D26
:103150000024EC63142001F0CBFB2C64152001F05B
:10316000C7FBC5F89040162001F0C2FBC5F894409B
:10317000172001F0BDFB204670BD00BF102D0002DE
:10318000404B4C0000E100E000800F400000084090
:1031900010B50446B0F5805F0AD201F097F8C0B2CE
:1031A00008304FF0804353F82000C0F30B1001E0CB
:1031B0004FF0FF30B4F5805F09D3200B01F086F8A3
:1031C000C0B20830024B53F82000C0F30B1010BD02
:1031D0000000084008B54FF080439A6E9A66044B91
:1031E00000221A805B889BB20BB901F06DFF08BD0D
:1031F000102D000208B5064B9A6E9A66054B002208
:103200005A801B889BB20BB901F05EFF08BD00BF5E
:1032100000000840102D000207E04FF080522C4BB8
:103220001A60BFF34F8FBFF36F8F2A4B1B889BB27F
:10323000002BF2D1274B5B889BB2002BEDD110B550
:10324000C0F30F32234B5A80C0F30B0018801B8849
:103250009BB2E3B14FF0004200214FF0804001F0FB
:10326000B5FB1C4B1B889BB243F0804343F4802387
:103270004FF08044A3604FF000420021204601F04F
:103280009BFB4FF080620021204601F095FB114B23
:103290005B889BB2D3B1104C4FF000420021204616
:1032A00001F094FB0B4B5B889BB243F0804343F4EB
:1032B0008023A3604FF000420021204601F07CFBF8
:1032C0004FF080620021204601F076FB10BD00BF68
:1032D00004ED00E0102D00020000084008B5044B8A
:1032E0001A68044B1968044801F0A2F908BD00BF30
:1032F00018000002140000026C59000070B51E4650
:10330000002412E0184B1B6825012B4459683068D3
:1033100002F09AFA40B9144B1B681D44AA68696808
:10332000124801F085F970BD01340F4B1B799C42A6
:10333000E8DB002412E00E4B03EB04135D68294622
:10334000306802F081FA40B9094B03EB0414A2681B
:103350002946064801F06CF970BD0134052CEAD904
:10336000044801F065F970BDC83000027C590000C6
:10337000085D00008859000010B51C4612B90020F5
:1033800001F068F923681BB1012001F063F910BD59
:10339000002001F05FF910BD08B501F00BFA10B97B
:1033A000014801F045F908BDB459000008B501F025
:1033B000C7F910B9014801F03BF908BDBC5900003C
:1033C00008B5074B1860197100225A719A71054BA4
:1033D0001A68054B1968054801F02AF908BD00BFB5
:1033E000C83000021800000214000002C859000092
:1033F000014B1879704700BFC830000210B50F4864
:1034000001F016F9002407E00D4B03EB0413596893
:103410000C4801F00DF90134052CF5D9002408E021
:10342000094B1B6803EB04135968064801F000F9C7
:103430000134FFF7DDFF8442F2DB10BD8459000048
:10344000085D0000DC590000C83000022DE9F0439F
:1034500083B06E4B1B68002B00F0D380002502A8C0
:10346000002300F8013DFFF7D5FD002840F0CA8099
:10347000664B5B79C72B04D90022644B5A71122525
:10348000EDE701210DF1070000F020F99DF807306C
:103490001B2B07D106215E4800F018F900225B4B78
:1034A0005A71DCE7082B07D1584B5B79002BD6D03B
:1034B000013B564A5371D2E70D2B02D00A2B40F044
:1034C0009980524B5B791BB9524801F0B1F8C6E7BD
:1034D0004E4A134400249C71274626463EE0F4B130
:1034E0004A4B23449B79222B19D1A7B9631E474A23
:1034F00013449B799BB913190021997106F11901A5
:1035000002EBC10302201871631C1344063342F816
:103510003130012703E03D4B234400279F71E7B979
:103520003A4B23449B79202B17D1384B234400225C
:103530009A71032E11DCDFF8D48006F11A0908EB2A
:10354000C90301221A71A018404400221146063016
:1035500002F03CF948F83900013601342B4B5B7915
:103560009C42BCDB0024294B5C7118E0274850F8D2
:10357000063B27013B44596802F066F970B9234BBA
:103580001B683B44DC6884B100F0E0FE1F4B53F83D
:10359000D01B3246C95BA047012707E00134FFF783
:1035A00027FF8442E2DB002700E00127F7B900246F
:1035B00015E0194B03EB04135968184802F044F95D
:1035C00060B9154F24013B19D3F80C8000F0BEFE02
:1035D000134B3246395BC047012702E00134052C0A
:1035E000E7D91FB90D490F4801F022F8094801F049
:1035F0001FF834E705494A79501C48710A44937111
:103600002DE71525284603B0BDE8F083C830000239
:10361000E4590000EC590000085D0000CE300002C3
:1036200098310002F059000030B587B000240094B2
:103630000194029403940494059401F097F800F522
:10364000B0600290144BDD882B1D8DF80C304223A6
:103650008DF80030FF238DF801305F238DF80230A4
:103660008DF8034023460CE01A1D0B4908680989B0
:1036700003FB01F1415C06A8024402F8181C013367
:10368000DBB29AB2AA42EFD30020034BD88069463E
:10369000FFF754FC07B030BD08000002094B1B784F
:1036A0006BB100B583B002A901F8010D064800F026
:1036B000D1FDFFF7B9FF012003B05DF804FB012045
:1036C000704700BFE02900020800000270B50646FE
:1036D0000D46002403E0305DFFF7E0FF0134AC420B
:1036E000F9D370BD704700BF002303604160836061
:1036F000704700BF002303608360704730B40368E5
:1037000003EB012101608468621C826091FBF2F38B
:10371000C3604568AA4202DDC91A01608460184688
:10372000002B01DA03F1FF00001230BC704700BF2C
:1037300001604372426000230372704730B4027A22
:10374000437A9A4208D1056844682C448C4203DAD3
:1037500083F00103037207E09A4205D004684268CF
:103760002244914200DA0372007A003018BF01202F
:1037700030BC704710B5CB7813F0C00F04D08B78F5
:10378000934206D2002407E08B789A4203D00024AB
:1037900002E0012400E001241CB110B10C2201F070
:1037A0009BFF204610BD00BF2DE9F04105460F46A6
:1037B00090460024214612E004EB44029300174A8D
:1037C000D35AAB420AD104EB440293003A46134960
:1037D00019444046FFF7CEFF064601210134092C6B
:1037E000EAD9B9B9002411E004EB440293000C4A71
:1037F000D35A9D4209D104EB440293003A4608494A
:1038000019444046FFF7B6FF0646013401F010FCAC
:10381000A042E9D83046BDE8F08100BF685D0000F5
:103820001C000002024BB3F87022024BDA627047B0
:103830001C2D0002503000024FF47A72014BA3F8A5
:10384000702270471C2D000210B586B00E4900F0A2
:1038500095FCB0B10D4BB3F870120D4AD162002443
:103860000494B3F86C3203F5E063029300F004FBB8
:103870008DF8000001238DF80C3069462046FFF7D3
:10388000D1FB06B010BD00BF7C3000021C2D000231
:1038900050300002704700BF037B082B28D102780C
:1038A00002F0E003202B18D112F0020F0ED012F01C
:1038B000010F06D0C2F38102C2F104020A600320A4
:1038C00070474FF0FF330B600320704712F0010F79
:1038D00010D043680B6004207047402B04D14FF098
:1038E000FF330B6005207047802B05D10220704705
:1038F00001207047012070470120704708B5084B30
:10390000B3F86C1200234FF0FF3201F5C061184686
:10391000FFF788F90122034B83F8642008BD00BF3C
:103920001C2D000250300002704700BF704700BFDE
:1039300030B587B0002504950C4CB4F86C42204497
:10394000029008208DF80C0080208DF800008DF882
:103950000110090A8DF802108DF8032001936946C1
:103960002846FFF75FFB07B030BD00BF1C2D0002EB
:1039700070B504460D4616464378807803EB002068
:103980000A46E17880B2FFF70FFFF0B12B7A33429D
:1039900028D1012E0CD16378A17803EB0121124BC1
:1039A000E27889B24FF4B060FFF7C2FF002070BD2B
:1039B0006378A17803EB01210C4BE27889B24FF4D4
:1039C000B060FFF7B5FF002070BD6378A17803EB0E
:1039D0000121074BE27889B24FF4B060FFF7A8FFEE
:1039E000002070BD012070BD01000106020001062B
:1039F0000000020670B58AB00446836803F07F03B6
:103A0000B94AB2F86C22934247D0B84A92F864207F
:103A100012F00F0F41D1007B04283ED96178A578C0
:103A200001EB0521B14DB5F86850A94235D1E578D3
:103A3000AE4991F86A108D422FD1AC4991F86B10C4
:103A40008B422AD12378802B04D10222A74B83F802
:103A5000642022E0102A04D10322A44B83F86420BE
:103A60001BE0202A19D1A14B196F043800F02AFC61
:103A7000C2B2237813F0010F07D0C3F381031146BC
:103A8000C3F1040000F01EFCC2B2984D211DE86E87
:103A900001F022FE032385F86430A36803F07F035E
:103AA000914AB2F86C22934240F082810AA9002325
:103AB00041F8283D2046FFF7EFFE022835D10025CA
:103AC0000895894BB3F86C3203F5B063069308226E
:103AD0008DF81C20214604A801F0FEFD04A928460B
:103AE000FFF7A0FA72B6814B93F86430012B1AD01D
:103AF000A36803F07F037D4A92F86B20934212D1B2
:103B00006378A27803EB0223784AB2F868209342E4
:103B100009D1E278754B93F86A309A4203D10222B8
:103B2000724B83F8642062B642E105287FD10122FE
:103B300001A92046FFF71CFF002800F039819DF8FD
:103B4000073013F0300F23D072B6684B93F864300F
:103B5000012B12D1654B302283F864206278A17862
:103B600002EB0122A3F86820E27883F86A205E4A1B
:103B7000B2F86C2283F86B2008E05D4B9DF80620BC
:103B8000BDF804104FF4B060FFF7D2FE62B60FE14B
:103B900000210891544BB3F86C3203F5B0630693DF
:103BA00008228DF81C2004A801F098FD9DF80760FC
:103BB00006F00705C5F104039B0043F043038DF8AD
:103BC0001030BDF804308DF811301B0A8DF812301A
:103BD000E3788DF8133016F0C0061DD0E378EBB90A
:103BE0009DF806308DF814301CE05EB1101DE178B0
:103BF000013901FB05220299895C0AAA024402F8F4
:103C0000181C06E004320299C95C0AA8024402F8B2
:103C1000181C01335BB202E0002300E000231A46C7
:103C20009D42E2DC04A90020FFF7FCF9C0E0032874
:103C300040F0B180022201A92046FFF799FE00283A
:103C400000F0B680237813F0010F16D09DF80720FE
:103C500002F00702C3F38103C3F104039A420ED0BA
:103C60006378A17803EB0121224BE27889B24FF40B
:103C7000B060FFF75DFE002302E0012300E00123B6
:103C80009DF8072012F0C00F0CD0E27852B963788B
:103C9000A17803EB0121174B89B24FF4B060FFF715
:103CA00047FE0023002B00F083809DF8073013F0BF
:103CB000300F3FD072B60D4B93F86430012B1BD1FF
:103CC0000A4B402283F864206278A17802EB01223B
:103CD000A3F86820E27883F86A20034AB2F86C22DD
:103CE00083F86B2011E000BF1C2D00025030000251
:103CF00000000606000001062E4B9DF80620BDF8C8
:103D000004104FF4B060FFF713FE62B650E010F0FD
:103D1000C00F08D0E078013800FB01210432A05C1C
:103D2000029A505403E00432A15C029AD154013348
:103D30005BB200E000231A469DF8070000F007017F
:103D40008B42E4DB1C4BB3F86C3203F5B063069393
:103D50000025089508228DF81C20294604A801F0AA
:103D6000BDFC60238DF81030BDF804308DF81130A3
:103D70001B0A8DF81230E3788DF813309DF8072078
:103D800002F00702211D05A801F0A6FC04A928469F
:103D9000FFF748F90CE001280AD16378A17803EB1A
:103DA0000121064BE27889B24FF4B060FFF7C0FD05
:103DB0000AB070BD000006061C2D000201000405BB
:103DC00000B587B07F220E4B1A7000234FF0FF32F0
:103DD00019461846FEF726FF00200490094BB3F859
:103DE0006C3203F5E063029380238DF800300123E9
:103DF0008DF80C306946FFF715F907B05DF804FB44
:103E0000503000021C2D00020622024BA3F86C2247
:103E1000704700BF1C2D0002704700BF08B58368C3
:103E200023BB037B012B21D9437899B2104AB2F806
:103E30006C22914200D0CBB90378802B13D004D8E8
:103E4000012B05D0022B07D008BD822B08D908BD55
:103E50000522084B1A7008BD0422064B1A7008BDD3
:103E600000F0F8FB08BD7F22024B1A7008BD00BFAE
:103E70001C2D000250300002014B1878704700BF23
:103E80005030000210B584B000240FE004F5C0509B
:103E900001AA002180B2FFF787FC30B1029B1969AB
:103EA00004F10C03034A42F823100134012CEDDD28
:103EB00004B010BD50300002F0B400271AE00F4CDF
:103EC000BA00D3199D002B46254405F51D750C4EEF
:103ED0001E440FCE0FC533682B607B011C4404F5D4
:103EE0002774084D1D440FCD0FC495E80F0084E8DA
:103EF0000F000137012FE2DDF0BC70471C2D0002DE
:103F0000205E0000E05D00002DE9F04F8BB006461A
:103F1000FFF7B2FF052840F0D7800024D1E0A5B21A
:103F200005F5C05001AA002180B2FFF73DFC28B979
:103F30009DF8073013F0C00F40F0C280029F3B682D
:103F4000002BC0F2BD8004F10C09DFF88C8108EB76
:103F50008901304600F012F9002800F0B1803B6979
:103F600048F829300822002104A801F0B7FB05F524
:103F7000D055ADB201AA00212846FFF715FC48B97B
:103F8000534B002229464FF4C060FFF7D1FC4FF09D
:103F9000000A89E0DDF808804FF00009CA467CE09D
:103FA0004D4608EB8903DB782BB15344082B05DC25
:103FB0004FF0000B04E04FF0010B01E04FF0010B5C
:103FC00008EB850301AA997838F82500FFF7ECFB88
:103FD00058B908EB85023E4B927838F825104FF41B
:103FE000C060FFF7A5FC4FF0010B08EB8503DA7802
:103FF0009DF8073003F007039A420BD908EB8502BE
:10400000344B927838F825104FF4C060FFF790FCDD
:104010004FF0010BBBF1000F46D19DF8071011F0D6
:10402000C00F27D008EB85039A7842B901220DF121
:10403000060104AB03EB0A0001F04EFB23E09DF800
:1040400006309A4207D9224B38F825104FF4C06049
:10405000FFF76EFC17E001F00701531E08EB850225
:10406000D278029803FB010104AB03EB0A0001F0D4
:1040700033FB08E008EB8503DA78029904AB03EB25
:104080000A0001F029FB08EB8505EB789A445FFAFA
:104090008AFA09F101095FFA89F9B9F1070F03D822
:1040A000BAF1080F7FF47CAFBAF1000F08D00020FE
:1040B00008908DF81CA03B68069304A9FEF7B2FF98
:1040C0000134012C7FF72BAF0BB0BDE8F08F00BFA0
:1040D00000000206000001065030000208B5FFF79C
:1040E000CBFE08BD08B50448082303220146143856
:1040F00000F058F808BD00BF9C300002836823F030
:104100007F02802A14D1026992B900B583B003F00E
:104110007F038DF80630C388ADF80430036802A928
:1041200041F8083D034800F047F803B05DF804FB90
:10413000704700BF8830000200B587B000230193AC
:104140000393049305930949B1F86C1280310291ED
:1041500008218DF80C10ADF806000092694618464B
:10416000FEF760FF07B05DF804FB00BF1C2D0002E6
:10417000014B1860704700BF182D000271B10B6829
:10418000834203D31B1A0B6000207047B3F1FF3F3B
:1041900006D04FF0FF330B600120704701207047BD
:1041A00000207047016082800022C280037201619A
:1041B000C1601046704700BFF8B10246C0889388BE
:1041C00098421CD210B4002307E0D068CC5C047085
:1041D000D0680130D0600133DBB2107A8342F4D36F
:1041E000D4681168938800FB0310844200D1D16029
:1041F000D3880133D380002003E02D2070471220A4
:10420000704710BC704700BFF0B10246C388EBB1E5
:10421000002308E011B110690078C854106901301A
:1042200010610133DBB2107A8342F3D310B4146906
:104230001168938800FB0310844200D11161D38878
:10424000013BD380002003E02D20704717207047EA
:1042500010BC704798B138B50346C588828895422E
:104260000FD2044631B100681B891A4603FB0500D2
:1042700001F032FAE3880133E380002038BD2D20BD
:104280007047122038BD00BFC0F57A7302FB00F200
:1042900001FB0321034880FB0130C917C1EBA010CB
:1042A000704700BFD34D6210914208D0401A4FF4BE
:1042B0007A7303FB00F3501A93FBF0F07047002071
:1042C000704700BF8842A8BF08467047434203407A
:1042D00001D1202000E01F209AB202B1103813F063
:1042E000FF1F00D0083813F00F3F00D0043813F040
:1042F000333F00D0023813F0553F00D001387047EB
:1043000082B0ADF8060016E00023009303E000BF82
:10431000009B013300930B4B1B680B4AA2FB03234A
:10432000009AB2EB133FF2D3BDF806309BB2013BCB
:104330009BB2ADF80630BDF806309BB2002BE3D13E
:1043400002B07047B831000273B2E745014B1868FC
:10435000704700BF182D000208B5034800F068F947
:104360006420FFF7CDFF08BD605E000008B503487C
:1043700000F05EF96420FFF7C3FF08BD685E00002F
:1043800008B5034800F054F96420FFF7B9FF08BDF1
:10439000785E000008B5034800F04AF96420FFF792
:1043A000AFFF08BD885E000008B5034800F040F983
:1043B0006420FFF7A5FF08BD985E000008B528B18E
:1043C0000268117002680132026008BD0846FFF7FA
:1043D00065F908BD2DE9F04107460E46151E05DCBE
:1043E0004FF0200814E00131013201E00A460021BB
:1043F00010780028F7D1A94201DA6D1A00E00025F3
:1044000013F0020F02D14FF0200801E04FF0300806
:1044100013F0010F08D000240FE041463846FFF7A3
:10442000CDFF0134013D00E00024002DF5DC04E067
:104430003846FFF7C3FF0134013631780029F7D140
:1044400005E041463846FFF7B9FF0134013D002D34
:10445000F7DC2046BDE8F081F0B585B005460C9E3E
:1044600059B930238DF8043000238DF805300B9BAB
:104470000A9A01A9FFF7AEFF40E0084633B10A2AC5
:1044800006D1002906DA4842012704E0002702E0AD
:10449000002700E0002704AC002304F8013D0DE0F4
:1044A000B0FBF2F302FB1303092B02DDA6F13A0184
:1044B0000B44303304F8013DB0FBF2F00028EFD19B
:1044C000A7B10A9B63B10B9B13F0020F08D02D21FB
:1044D0002846FFF773FF0A9B013B0A93012606E07B
:1044E0002D2304F8013C013C002600E000260B9B34
:1044F0000A9A21462846FFF76DFF304405B0F0BD0B
:10450000F0B587B006460C461F46002583E0252BF4
:104510007BD1621C6378002B00F08180252B73D047
:104520002D2B02D1A21C012300E00023144602E03F
:10453000013443F002032278302AF9D0002205E04A
:1045400002EB820250003039421801342178A1F187
:104550003000C0B20928F3D9732908D1396804376B
:1045600001B932493046FFF735FF054452E064296E
:1045700001D069290CD13968043761200290019378
:10458000009201230A223046FFF766FF054441E00E
:1045900078290CD139680437612002900193009288
:1045A000002310223046FFF757FF054432E0582918
:1045B0000CD1396804374120029001930092002306
:1045C00010223046FFF748FF054423E075290CD13F
:1045D00039680437612002900193009200230A2277
:1045E0003046FFF739FF054414E0632912D13978CA
:1045F00004378DF8141000218DF8151005A93046E8
:10460000FFF7E8FE054405E0144621783046FFF741
:10461000D5FE013501342378002B7FF478AF16B135
:10462000336800221A70284607B0F0BDB45E00005F
:104630000FB400B583B004AB53F8041B01934FF0E3
:10464000FF320020FFF75CFF03B05DF804EB04B01D
:10465000704700BFBFF34F8F0449CA6802F4E0629D
:10466000034B1343CB60BFF34F8FFEE700ED00E039
:104670000400FA052DE9F0418AB006460C461546BD
:1046800000F01AF972B6B4F5007F0AD003D8B4F579
:10469000807F08D105E0B4F5806F02D0B4F5805F6B
:1046A00001D1002000E00C202F0B2B19013B4FEA19
:1046B0001338002839D1322305930697CDF81C8092
:1046C00001A905A81B4B9847019800282DD1342338
:1046D00005930697CDF81C80174B1B68174AA2FB61
:1046E00003239B09089301A905A8124B9847019839
:1046F000D8B9322305930697CDF81C8001A905A8E7
:104700000C4B9847019880B933230593069507967B
:104710000894094B1B68094AA2FB03239B090993D0
:1047200001A905A8034B9847019862B60AB0BDE8F5
:10473000F08100BF05020003B8310002D34D6210C2
:1047400008B50948D0F8DC32B3FA83F35B09C0F846
:10475000DC324FF47C324FF4807100F51970FFF7B2
:1047600089FF00B10C2008BD1C2D0002014B1878F8
:10477000704700BF08F0030010B4002314E0441C8D
:10478000027883EA0223082213F4004F05D041F295
:10479000210080EA43039BB201E05B009BB2013A37
:1047A00012F0FF02F0D120460139E8D5184610BCBE
:1047B000704700BF38B5002307E0184A995C03F53D
:1047C0007C321278914204D101337B2BF5D901233D
:1047D00000E00023EBB97C211148FFF729FF114CC1
:1047E000114B1B68C4F86432104B1B68C4F8683264
:1047F00004F5197578212846FFF7BEFFC4F8DC02DE
:104800004FF47C324FF480712846FFF733FF10B924
:1048100038BD002038BD064838BD00BF802F0002DB
:10482000BC5E00001C2D00021400000218000002F3
:104830000C00000810B5042400230C490C4A04E0C5
:1048400011F8010B02F8010B0133A342F8DB094810
:10485000D0F8DC42782100F51970FFF78DFF844213
:1048600001D1002010BD0E2010BD00BF78F0030064
:10487000F82F00021C2D000208B578224FF47C317D
:10488000024800F029FFFFF7D5FF08BD802F000286
:1048900008B50E2000F022F90F2000F01FF91020BB
:1048A00000F01CF90B2000F019F90B2000F03CF986
:1048B0000B2000F04FF908BD08B500F029F9014BB5
:1048C000186008BDB831000230B400F00F03DB00FF
:1048D0000009064D55F82040FF229A4024EA0202C2
:1048E0009940114345F8201030BC704700800340C8
:1048F00010B400F01F04C0090549703051F82020A1
:104900000123A34022EA030341F8203010BC704782
:1049100000800340436E23F078431943416670479B
:1049200038B504460D46B0F1804F0DD14FF480608C
:1049300000F028F91B2000F0D1F81B2000F0F4F85B
:104940001B2000F007F90CE04FF4006000F01AF9AA
:104950001C2000F0C3F81C2000F0E6F81C2000F03A
:10496000F9F800236366256038BD00BF38B50546F9
:104970000C4600F0CDF8B0FBF4F000B9012001388E
:10498000C0B22B6823F0FF031843286038BD00BF76
:1049900010B50446036843F080430360036823F4C2
:1049A000807303600349FFF7E1FF236823F480630A
:1049B000236010BD20A10700023150F8213023F000
:1049C0007C731A4340F82120704700BF023150F831
:1049D000213023F07C7323EA020240F82120704743
:1049E00008B5FFF797FF08BD00F03F0000FB01107E
:1049F000704700BF10F0030002D0012802D004E08D
:104A000003487047034B186870470020704700BF89
:104A1000001BB7006859000008B5034BD3F8A0008D
:104A2000FFF7E8FF08BD00BF0040074010B5054B89
:104A3000D3F89841FFF7F0FF01462046FFF7D4FF77
:104A400010BD00BF00400740094BD3F88030DBB2F7
:104A5000012B05D013B1022B07D004E005487047A5
:104A6000054B18687047002070470448704700BF26
:104A700000400740001BB70068590000D8AC070091
:104A800008B50C4BD3F88430DBB2032B0FD8DFE82A
:104A900003F00205080BFFF7D7FF08BDFFF7BCFFC7
:104AA00008BDFFF7C3FF08BD034B186808BD002011
:104AB00008BD00BF004007406459000008B5064B20
:104AC000D3F8843013F0FF0F02D1FFF7BDFF08BD0C
:104AD000FFF7D6FF08BD00BF004007401F280AD9D6
:104AE0000A49D1F8C8302038012202FA00F01843F0
:104AF000C1F8C80070470549D1F8C430012202FA54
:104B000000F01843C1F8C400704700BF00400740E0
:104B100008B5FFF7D3FF034BD3F8C030B0FBF3F079
:104B200008BD00BF004007401F2808D908498B6C0A
:104B30002038012202FA00F01843886470470449C3
:104B40004B6C012202FA00F018434864704700BF22
:104B5000004007401F2809D909498B6C20380122E1
:104B600002FA00F023EA00008864704704494B6CA5
:104B7000012202FA00F023EA00004864704700BFF7
:104B800000400740074AD2F8083223F07E4323F062
:104B9000870320F07E4020F0870023EA0003C2F85C
:104BA0000832704700400740F8B5044615461F46D6
:104BB000016022621046FDF7A3FE06462846FDF777
:104BC000ABFE00EB461080221C4B43F82020284609
:104BD000FDF796FE06462846FDF79EFE4FF0E05193
:104BE00006F5006251F82260012303FA00F046EA5C
:104BF000000341F822302846FDF782FE064628468B
:104C0000FDF78AFE760106F1E05600253554A780AF
:104C10003223E380BDF818302381BDF81C30638156
:104C2000BDF8201004F10C00FEF75EFD099B6362E5
:104C30000A9BA362A577A583F8BD00BF00800F4043
:104C4000837F023BDBB2012B01D98177704701B929
:104C50008177704770B50446837F012B38D1838BF1
:104C60004289934211D9066A3046FDF749FE05464E
:104C70003046FDF751FE6D0105F1E05500232B5440
:104C800002212046FFF7DCFF70BD0289934211D25A
:104C9000066A3046FDF734FE05463046FDF73CFE19
:104CA0006D0105F1E05500232B5403212046FFF749
:104CB000C7FF70BD056A2846FDF722FE0446284658
:104CC000FDF72AFE640104F1E0540123235470BD72
:104CD000022B14D1066A3046FDF712FE0546304617
:104CE000FDF71AFE6D0105F1E05500232B54626AB1
:104CF0004AB34FF47F400021FFF71EFA70BD032B2B
:104D000014D1066A3046FDF7FBFD05463046FDF737
:104D100003FE6D0105F1E05500232B54A26A92B108
:104D20004FF47F400021FFF707FA70BD056A28465F
:104D3000FDF7E6FD04462846FDF7EEFD640104F1AB
:104D4000E0540023235470BD10B504460068FEF7FC
:104D50001FFA80B240F6E44303FB00F0002801DABA
:104D600000F6FF700013C838A188E38803FB01F147
:104D70004FF47A7393FBF1F101FB00F1002900DAA3
:104D8000002104F10C00FEF7B9FCA08310BD00BFA8
:104D900070B504461E4600250582C1631146FEF724
:104DA000A3FCA66365636562049B2364A574E57434
:104DB000257570BD10B504461830FEF7B9FC029B8E
:104DC00063620123A37410BD10B504462830FEF7BA
:104DD000AFFC029B63630123E37410BD10B504466E
:104DE000036C00F11001C06B984798B3B4F9101030
:104DF0002046FEF783FC01B2218200232375A37CA9
:104E00008BB104F11800FEF799FC60B1237D013BE2
:104E1000DBB2012B05D9626A4FF47F400021FFF716
:104E20008BF901232375E37C23B3B4F9101004F14B
:104E30002800FEF783FCE8B1237D013BDBB2012BA8
:104E400005D9626B4FF47F400021FFF775F902230B
:104E5000237510BD237D032B05D0A26B4FF47F403B
:104E60000021FFF769F903232375002323822046DD
:104E7000FEF740FC10BD00BF08B5827F8369002BA0
:104E800000DAFF33C3F30F230148FFF7D1FB08BD5E
:104E9000285F0000012A2FD11A79012A2CD110B5E0
:104EA0001C461648FFF7C4FB23683BB90022144B8D
:104EB00083F862221348FFF7BBFB10BD012B07D11B
:104EC00001220F4B83F862220F48FFF7B1FB10BDA0
:104ED000022B07D102220A4B83F862220B48FFF70C
:104EE000A7FB10BD032B06D10322054B83F86222DA
:104EF0000748FFF79DFB10BD704700BF485F0000EB
:104F00001C2D0002585F0000605F0000645F00001D
:104F1000705F0000F0B587B03048FFF789FB304C78
:104F2000D4F834112F48FFF783FBB4F9481194F8F3
:104F30004C21B4F98C3194F89001B4F9D05194F823
:104F4000D461B4F9147294F818E2CDF810E0039724
:104F50000296019500902448FFF76AFBB4F84812C6
:104F600094F84A2294F84B3294F84C0200901F486F
:104F7000FFF75EFB1E492046FFF77EFF1D4904F147
:104F80002C00FFF779FF1C4904F15800FFF774FF6C
:104F90001A4904F18400FFF76FFF194904F1B000CA
:104FA000FFF76AFF174904F1DC00FFF765FF1649B8
:104FB00004F58470FFF760FFB4F860121348FFF740
:104FC00037FB4FF40000FEF7E3F84FF48052014640
:104FD0000F48FFF72DFB07B0F0BD00BF785F000062
:104FE0001C2D0002885F0000A05F00002860000008
:104FF0006C6000007860000080600000906000003D
:10500000A0600000B0600000BC600000C460000050
:10501000D060000042B11A79012A05D108B519788B
:105020000248FFF70DFE08BD704700BFF82D0002D3
:10503000182070470320704710B50C46FEF7A8F8FB
:10504000B0F5805F1AD0D8B1E4B140F6E44303FB79
:1050500000F0002801DA00F6FF70001301380A4A58
:105060000A490B4B93FBF0F0FFF71EF964226FF037
:105070003101FFF709F92080012010BD002010BD8B
:10508000002010BD002010BDF81E0200743A01007F
:105090008096980010B50C46FEF77AF84FF46062DF
:1050A0001021FFF701F964220021FFF7EDF800B2AB
:1050B0002080002802DA0023238003E0642801DD39
:1050C00064232380012010BD10B572B6104C204619
:1050D000FFF73AFE04F12C00FFF736FE04F158000A
:1050E000FFF732FE04F18400FFF72EFE04F1B0005A
:1050F000FFF72AFE04F1DC00FFF726FE04F58470BA
:10510000FFF722FE62B60348FEF786F810BD00BF27
:105110001C2D00023C07F0002DE9F04786B0A54D9C
:10512000A54B04934FF4C02303936424029446F2E6
:10513000A8130193009402231C224FF48071284687
:10514000FFF732FD9D4B0493013B039302944FF410
:10515000FA6701970026009602231B224FF4007184
:1051600005F12C00FFF720FD954B0493013B0393C1
:1051700002940197009602231D22402105F1580058
:10518000FFF712FDDFF880A2CDF810A04FF006194E
:10519000CDF80C90029444F62068CDF80480009479
:1051A00002232222102105F18400FFF7FDFCCDF837
:1051B00010A0CDF80C900294CDF804800094022346
:1051C0000A22202105F1B000FFF7EEFC7D4B04938D
:1051D000013B0393029440F6B833019300940F23EC
:1051E0000B22082105F1DC00FFF7DEFC764B04936F
:1051F000013B03930294019700940223132204219C
:1052000005F58470FFF7D0FCDFF80092D9F8003084
:1052100023F40063C9F800300C20FDF771FB8046D1
:105220000C20FDF779FB694F00EB48104FF0900818
:1052300047F82080D9F8003023F40053C9F8003033
:105240000E20FDF75DFB81460E20FDF765FB00EBB0
:10525000491047F82080DFF8B891D9F8003023F0E2
:105260000803C9F800302420FDF74AFB82462420B9
:10527000FDF752FB00EB4A1047F82080D9F80030C8
:1052800023F00403C9F800302320FDF739FB8146E1
:105290002320FDF741FB00EB491047F8208005F57E
:1052A0009C77DFF87081CDF80080494B22464FF49F
:1052B00000013846FFF76CFD464B0093334602224F
:1052C0005A213846FFF776FD434B009333460222BE
:1052D0005F213846FFF778FD05F5BE77CDF80080F1
:1052E0003E4B22464FF480013846FFF751FD3C4BC0
:1052F00000933346042250213846FFF75BFD394BBB
:105300000093334604225A213846FFF75DFD05F528
:10531000E077DFF80481CDF80080334B22464FF46C
:1053200080113846FFF734FD304B009301230A22E9
:105330001E213846FFF73EFD2D4B009301230A2224
:1053400014213846FFF740FD05F50177CDF80080C0
:10535000284B22464FF400113846FFF719FD264B23
:10536000009301230A2246213846FFF723FD234BF1
:10537000009301230A2232213846FFF725FD2146FA
:1053800005F51470FEF7B0F9A5F8606285F8626261
:10539000FFF750FE01461A48FEF712F8FFF74AFAE7
:1053A00008B1FFF707FA1748FDF736FF06B0BDE86A
:1053B000F08700BF1C2D000201000600030006005C
:1053C000050006000B0006000D00060000800F40DF
:1053D000100006000E0006000F0006001300060075
:1053E0001100060012000600190006001700060052
:1053F000180006001600060014000600150006003E
:10540000F85E00003C07F000070006000020001CCA
:105410000420001C395000009550000008B5FDF72D
:10542000B7FE40F6E44303FB00F0002801DA00F683
:10543000FF70C0F30F3008BD38B59648FFF76CFE1B
:10544000944C14212046FFF705FC142104F12C0094
:10545000FFF700FC142104F15800FFF7FBFB1421B7
:1054600004F18400FFF7F6FB142104F1B000FFF70C
:10547000F1FB142104F1DC00FFF7ECFB142104F52F
:105480008470FFF7E7FBA369002B00DAFF331C12DF
:10549000804B5B6C002B00DAFF33A4B2C3F30F2305
:1054A0001C447C4B186F002800DAFF30C0F30F203B
:1054B0000319784AD2F89C10002900DAFF31C1F3B1
:1054C0000F21C818734BD3F8C820002A00DAFF3226
:1054D000C2F30F2211186F4BD3F8F430002B00DA0F
:1054E000FF33C3F30F235A186A4BD3F82031002B34
:1054F00000DAFF33C3F30F231344664CC4F834318E
:10550000142104F59C70FFF769FC142104F5BE70AA
:10551000FFF764FC142104F5E070FFF75FFC142131
:1055200004F50170FFF75AFC2420FDF7E9F9054660
:105530002420FDF7F1F96D0105F1E0552B5C13F026
:10554000FF0F14BF0123002384F84B322320FDF703
:10555000D7F905462320FDF7DFF96D0105F1E05588
:105560002B5C13F0FF0F14BF0123002384F84C328F
:105570000C20FDF7C5F905460C20FDF7CDF96D01AE
:1055800005F1E0552B5C13F0FF0F14BF012300233E
:1055900084F84A324FF48060FFF740FF00EB80014F
:1055A00000EB410104F51470FEF7A8F8A4F86002BE
:1055B00094F86232012B1ED1D4F89C30002B00DA13
:1055C000FF33C3F30F23B3F5FA6F04D90021324838
:1055D000FFF736FB28E02F4BD3F8C830002B00DA5A
:1055E000FF33C3F30F23B3F5FA6F1DD900212B4806
:1055F000FFF726FB18E0032B0BD1264C012104F109
:105600008400FFF71DFB012104F1B000FFF718FB38
:105610000AE0204C002104F18400FFF711FB002177
:1056200004F1B000FFF70CFB1A4C94F86212022947
:1056300014BF002101212046FFF702FB94F86212FB
:10564000032914BF0021012104F12C00FFF7F8FA0F
:1056500094F86232012B02D194F8761000E0002118
:105660000C4C04F15800FFF7EBFAB4F848322BB1B8
:1056700094F86232012B03D0002102E0002100E007
:1056800001210748FFF7DCFAFDF7E0FE1420FDF7E3
:10569000D7F8D5E61C2D0002A02D0002CC2D00026B
:1056A000242E000200B583B0084C2046FDF7FAF81E
:1056B000002301930223009323464FF420720449F0
:1056C0000448FDF7A1F8FCF751F8FEE71C2D000295
:1056D000F46100003954000000F0D8B800F0F0B8D0
:1056E0000A4B034493F880309A0601D5303808E01D
:1056F0001A0701D5573804E0DB064CBF37384FF0A6
:10570000FF308842A8BF4FF0FF307047FC610000B7
:105710002DE9F84F804615460346894629491C461F
:1057200014F8010BC8B10A1892F88020D20701D5ED
:105730002346F4E7302810D158789C1C00F0DF0293
:10574000582A06D135F010063AD1DC1C987810257D
:1057500008E0012635B9082504E00DB1002601E076
:105760002E460A250027BA46BB462946FFF7B8FF52
:1057700000280EDB05FB07073B0C05FB0A3ABAF5D0
:10578000803FBFB228BF4FF0010B14F8010B012678
:10579000EBE7B9F1000F05D00EB1013C00E0444643
:1057A000C9F80040BBF1000F06D0074B22221A6057
:1057B0004FF0FF30BDE8F88F47EA0A40BDE8F88FA8
:1057C0000126CFE7FC610000FC2F0002F7B50E4672
:1057D000074605461A48294611F8014B94B10319AA
:1057E00093F8803013F0010301D00D46F3E72B2C22
:1057F00006D02D2C0ABF4FF4007400240D4601E0A2
:105800000D461C4601A92846FFF782FF26B1019BE1
:105810009D4208BF3B463360A30508D5404200289F
:105820000CDD084B22221A604FF0004006E00028F1
:10583000BFBF044B22221A606FF0004003B0F0BDDE
:10584000FC610000FC2F000240EA01039B0730B519
:1058500010D105460C46214628460B6855F8042B06
:1058600004349A4206D1A2F1013323EA020313F071
:10587000803FF0D010F8013B11F8012B934201D08A
:10588000981A30BD002BF5D1184630BD40EA01030F
:10589000DB0703460CD40346043A22BF51F804CB7D
:1058A00043F804CBB2F10402F7D2043208BF7047C8
:1058B000013A24BF11F801CB03F801CBF8D87047A7
:1058C000034613F0030F0ED101F0FF0141EA01215D
:1058D00041EA0141043A24BF43F8041BB2F1040237
:1058E000F9D202F10402013A24BF03F8011BFAE7DE
:1058F0007047FFFF49444C4500FFFFFF546D725154
:1059000000000000546D722053766300737461636D
:105910006B206F766572666C6F772066726F6D2094
:105920007461736B3A2025730A00000075765F6816
:10593000616C00FF636F6E66696775726564206DE8
:10594000736720746F206265207265636569766590
:10595000642077697468206D7367206F626A202500
:10596000750A00FF00800000001BB700257320426D
:1059700075696C64206F6E2025730A000A25733ADE
:105980000A25730A0A0000004769766520612063D2
:105990006F6D6D616E64206E616D65206173206155
:1059A00020737472696E6720617267756D656E74BD
:1059B0000A00000073617665640A0000726576650E
:1059C000727465640A00000025730A4275696C648C
:1059D000206F6E2025730A3E0000000022257322EE
:1059E0000A0000001B5B324B0D3E00003E00000031
:1059F000436F6D6D616E642027257327206E6F7471
:105A000020666F756E640A006F6E000074727565B3
:105A1000000000003100000068656C7000000000AC
:105A20004C6973747320616C6C20617661696C6180
:105A3000626C6520636F6D6D616E647300000000C1
:105A4000646576004C6F67732074686520646576C2
:105A5000696365206E616D6520616E6420627569A1
:105A60006C642064617465006D616E0047697665E1
:105A70007320696E666F726D6174696F6E206672F5
:105A80006F6D2074686520636F6D6D616E642E208C
:105A9000476976652074686520636F6D6D616E641B
:105AA000206E616D65206173207468652061726786
:105AB000756D656E742E0A55736167653A206D6168
:105AC0006E20223C636F6D6D616E645F6E616D650B
:105AD0003E22000073617665000000005361766528
:105AE00073206170706C69636174696F6E206461AA
:105AF000746120616E642073657474696E677320CD
:105B0000746F206E6F6E2D766F6C6174696C65209A
:105B1000666C617368206D656D6F72792E00000090
:105B200072657665727400005265766572747320D2
:105B3000616C6C206368616E67657320657863656E
:105B400070742074686520646576696365204352CB
:105B500043206E756D62657220746F206661637498
:105B60006F72792064656661756C74732E0A546F68
:105B70002072657365742074686520646576696356
:105B800065204352432C2073657420697420746F20
:105B900020302077697468206120636F6D6D616EBD
:105BA0006420276372632030272E0A5468652064BE
:105BB0006576696365206E6565647320746F206225
:105BC000652072657374617274656420666F7220FB
:105BD0006368616E67657320746F2074616B652004
:105BE0006566666563742E0A546F20756E646F2057
:105BF0007265766572742C207361766520637572A8
:105C000072656E742076616C75657320746F2066A2
:105C10006C617368207769746820277361766527E3
:105C200020636F6D6D616E642E0000007265736598
:105C30007400000055736167653A2072657365747E
:105C40002028312F3029526573657473207468657C
:105C500020636F6E74726F6C6C657220696E737402
:105C6000616E746C792E0A416C6C20756E7361766E
:105C700065206D6F64696669636174696F6E732016
:105C800077696C6C206265206C6F73742E0A4966AC
:105C9000203120697320676976656E206173206109
:105CA0006E20617267756D656E742C207468652056
:105CB00073797374656D2077696C6C207573650AF0
:105CC0007761746368646F672074696D65722074AE
:105CD0006F206D616B65206120686172647761720D
:105CE000652072657365742E20456C736520736F33
:105CF0006674776172650A726573657420697320D2
:105D0000646F6E652E00FFFF00000000185A00004F
:105D1000205A0000FD33000001000000405A00003E
:105D2000445A0000DD32000002000000685A000002
:105D30006C5A0000FD32000003000000D45A00003D
:105D4000DC5A00009933000004000000205B0000D2
:105D5000285B0000AD330000050000002C5C000053
:105D6000345C00007933000000100004543000025D
:105D7000010000000B100001882F0002030000004A
:105D8000101001045830000203000000111001043B
:105D90005C30000203000000171000028C2F00028C
:105DA00003000000181007446030000201000000EA
:105DB00000180544902F000203000000011805445C
:105DC000A42F000203000000001A0844B82F0002AC
:105DD00003000000011A0844D82F0002030000004D
:105DE00000200004002200021022000120220001F5
:105DF0003022000100000000000000000000000050
:105E000040220002502200026022000170220001A4
:105E100080220002000000000000000000000000DE
:105E200086010000FF0000000000000000000000EC
:105E3000C800000086020000FF0000000000000013
:105E400000000000C8000000434F4E4649475F5421
:105E500041524745545F4C504331353439000000BE
:105E60001B5B4B4E4D490D001B5B4B4861726446FA
:105E700061756C740D0000001B5B4B4D656D4D61D1
:105E80006E6167650D0000001B5B4B4275734661D8
:105E9000756C740D000000001B5B4B5573616765EA
:105EA0004661756C740D00001B5B4B446566617543
:105EB0006C740D00286E756C6C2900FF466C617364
:105EC00068696E672025752062797465730A000021
:105ED00053657020203820323031372031303A3449
:105EE000303A3337000000006573625F322E302E87
:105EF000302D64697274790000000000F0600000C9
:105F0000F8600000154F0000010000002C61000047
:105F100034610000954E000002000000AC610000FA
:105F2000B46100001550000025732073746174651E
:105F30003A2025752C2063757272656E743A20259F
:105F400075206D410A000000656E67696E652073FB
:105F5000746174653A2000004F46460A0000000054
:105F60004F4E0A00505245484541540A0000000077
:105F700053544152540A000053595354454D205331
:105F800054415455533A0A00546F74616C20637540
:105F90007272656E743A202575206D410A0000000A
:105FA0004D6F746F722074656D7065726174757277
:105FB000653A20256920432C2073746174653A206A
:105FC00025750A4879647261756C6963206F696C24
:105FD0002074656D70657261747572653A2025690B
:105FE00020432C2073746174653A2025750A467528
:105FF000656C206C6576656C3A2025752025252C0E
:106000002073746174653A2025750A4F696C206CA1
:106010006576656C3A2025752025252C20737461E2
:1060200074653A2025750A0052706D3A2025750A6C
:10603000416C74204C3A2025750A2C204D6F746FEA
:10604000722057617465722054656D703A20257511
:106050000A4D6F746F72204F696C205072657373B4
:106060007572653A2025750A00000000476C6F774D
:1060700020506C7567730000537461727465720010
:10608000414320636F6D70726573736F720000001F
:10609000456E67696E65207374617274203100000B
:1060A000456E67696E6520737461727420320000FA
:1060B000487964722050756D70000000416C742046
:1060C000494700005664643A202575206D560A0041
:1060D0006D6F746F722074656D70206164633A2017
:1060E00030782578202F20307825780A00000000AD
:1060F0007374617400000000446973706C6179739B
:10610000207468652073797374656D20737461748D
:10611000757320696E666F726D6174696F6E2E0A99
:1061200055736167653A207374617400656E6769C1
:106130006E65000053696D756C61746573207468D9
:10614000652069676E6974696F6E206B6579207070
:106150006F736974696F6E732E0A303A20706F77AF
:106160006572206F66660A313A20706F776572201B
:106170006F6E0A323A20476C6F7720506C756773E8
:10618000206F6E0A333A2073746172746572206FE7
:106190006E0A55736167653A20656E67696E6520A2
:1061A00028302F312F322F332900000070756D7089
:1061B000000000005365747320746865206879647A
:1061C0007261756C69632070756D70206F75747085
:1061D00075742073746174652E0A55736167653A2E
:1061E0002070756D7020286D696C6C69616D7073BD
:1061F0002900FFFF737465700000000000000000BC
:10620000000000000000000000000000000000008E
:10621000000000000000000000000000000000007E
:10622000000000000000000000000000000000006E
:10623000000000000000000000000000000000005E
:10624000000000000000000000000000000000004E
:10625000000000000000000000000000000000003E
:10626000000000000000000000000000000000002E
:10627000000000000000000000000000404040401E
:106280004040404040414141414140404040404009
:1062900040404040404040404040404005020202F3
:1062A0000202020202020202020202022020202056
:1062B0002020202020200202020202020290909060
:1062C000909090101010101010101010101010104E
:1062D00010101010101010020202020202888888AA
:1062E00088888808080808080808080808080808AE
:1062F000080808080808080202020240000000001E
:10630000000000000000000000000000000000008D
:10631000000000000000000000000000000000007D
:10632000000000000000000000000000000000006D
:10633000000000000000000000000000000000005D
:10634000000000000000000000000000000000004D
:10635000000000000000000000000000000000003D
:10636000000000000000000000000000000000002D
:0C63700000000000000000000000000021
:10637C00AAAAAAAA08270000142D000204000000F3
:10638C0001000000E85E0000D05E00000020000468
:10639C00502E000201000000002100013A2D0002E5
:1063AC000100000001210002382D00020100000054
:1063BC0010210001662D00020100000011210002D5
:1063CC00642D00020100000020210001922D00022A
:1063DC000100000021210002902D000201000000AC
:1063EC0030210001BE2D000201000000312100020D
:1063FC00BC2D00020100000040210001EA2D00022A
:10640C000100000041210002E82D00020100000003
:10641C0050210001162E0002010000005121000243
:10642C00142E00020100000060210001422E000227
:10643C000100000061210002402E0002010000005A
:10644C0000220002642F0002010000001022000153
:10645C00662F00020100000020220001672F0002BD
:10646C000100000030220001682F00020100000032
:10647C0040220002642E00020100000050220002A3
:10648C00A82E00020100000060220001302F000243
:10649C000100000070220001EC2E0002010000003F
:0C64AC00802200027C2F00020100000092
:040000030000118D5B
:00000001FF
