:10100000E03F00028D110000354100004941000021
:101010005D4100007141000085410000C267FEFD96
:10102000000000000000000000000000611300004C
:101030005111000000000000C11300000514000061
:101040005D1100005D1100005D1100005D110000E8
:101050005D1100005D1100005D1100005D110000D8
:101060005D1100005D1100005D1100005D110000C8
:101070005D1100005D1100005D1100005D110000B8
:101080005D1100005D1100005D1100005D110000A8
:101090005D1100005D1100005D1100005D11000098
:1010A0005D1100005D1100005D110000AD2D00001C
:1010B0005D1100005D1100005D1100005D11000078
:1010C0005D1100005D1100005D1100005D11000068
:1010D0005D1100005D1100005D1100005D11000058
:1010E0005D1100005D1100005D1100005D11000048
:1010F0005D1100005D1100005D110000005700004F
:10110000000000021C000000005700000040000228
:1011100000000000005700000080000200000000F6
:1011200020000002242E0000004000020000000009
:101130000080000200000000FEE700BFFEE700BFE5
:10114000FEE700BFFEE700BFFEE700BFFEE700BF0F
:10115000FEE700BFFEE700BFFEE700BFFEE700BFFF
:1011600010B4002304E004680C600433043004313C
:101170009342F8D310BC7047002303E000220260C2
:10118000043304308B42F9D3704700BF10B50F4BC6
:1011900007E003F10C049A6859681868FFF7E0FF4C
:1011A00023460B4A9342F4D306E01C46596854F890
:1011B000080BFFF7E1FF2346064A9342F5D30122CD
:1011C000054B1A6003F04CFDFEE700BFFC10000069
:1011D0002011000038110000D8400740FFFFFFFF3A
:1011E000FFFFFFFFFFFFFFFFFFFFFFFFFFFFFFFF0F
:1011F000FFFFFFFFFFFFFFFFFFFFFFFFFFFFFFFFFF
:10120000FFFFFFFFFFFFFFFFFFFFFFFFFFFFFFFFEE
:10121000FFFFFFFFFFFFFFFFFFFFFFFFFFFFFFFFDE
:10122000FFFFFFFFFFFFFFFFFFFFFFFFFFFFFFFFCE
:10123000FFFFFFFFFFFFFFFFFFFFFFFFFFFFFFFFBE
:10124000FFFFFFFFFFFFFFFFFFFFFFFFFFFFFFFFAE
:10125000FFFFFFFFFFFFFFFFFFFFFFFFFFFFFFFF9E
:10126000FFFFFFFFFFFFFFFFFFFFFFFFFFFFFFFF8E
:10127000FFFFFFFFFFFFFFFFFFFFFFFFFFFFFFFF7E
:10128000FFFFFFFFFFFFFFFFFFFFFFFFFFFFFFFF6E
:10129000FFFFFFFFFFFFFFFFFFFFFFFFFFFFFFFF5E
:1012A000FFFFFFFFFFFFFFFFFFFFFFFFFFFFFFFF4E
:1012B000FFFFFFFFFFFFFFFFFFFFFFFFFFFFFFFF3E
:1012C000FFFFFFFFFFFFFFFFFFFFFFFFFFFFFFFF2E
:1012D000FFFFFFFFFFFFFFFFFFFFFFFFFFFFFFFF1E
:1012E000FFFFFFFFFFFFFFFFFFFFFFFFFFFFFFFF0E
:1012F000FFFFFFFFFFFFFFFFFFFFFFFFFFFFFFFFFE
:101300004FF0A00383F31188BFF36F8FBFF34F8FAC
:10131000FEE700BF06480068006880F3088862B6F0
:1013200061B6BFF34F8FBFF36F8F00DF00BF0000C8
:1013300008ED00E04FF0807340F8043C40F8081CD2
:10134000034B40F80C3C40F8202C4038704700BF5D
:1013500001130000FFFFFFFFFFFFFFFFFFFFFFFF85
:10136000074B19680868B0E8F00F80F30988BFF3ED
:101370006F8F4FF0000080F311884EF00D0E704714
:10138000F40000024FF0A00383F31188BFF36F8FC6
:10139000BFF34F8F024A136801331360704700BFD9
:1013A00000000002034A1368013B13600BB983F38A
:1013B0001188704700000002FFFFFFFFFFFFFFFFE3
:1013C000EFF30980BFF36F8F0D4B1A6820E9F00F20
:1013D00010602DE908404FF0A00080F3118800F064
:1013E00077FB4FF0000080F31188BDE808401968D2
:1013F0000868B0E8F00F80F30988BFF36F8F70477B
:10140000F400000208B54FF0A00383F31188BFF386
:101410006F8FBFF34F8F00F0EFF918B14FF080528C
:10142000024B1A60002383F3118808BD04ED00E02D
:10143000064B1B68064AA2FB03239B09013B054A96
:1014400013600722044B1A60704700BF842D00020E
:10145000D34D621014E000E010E000E008B5094B45
:101460001A6842F078721A601A6842F060421A6094
:10147000FFF7DEFF0022044B1A60FFF74BFFFFF778
:101480003FFF00BF20ED00E0000000020A4B1B6898
:101490001B680BB9012300E0002323B14FF0FF329A
:1014A000064B1A607047044B1B68DB68DB685A68A0
:1014B000024B1A60704700BF2400000214010002B2
:1014C00010B50446006B00F0F7FE204600F0F4FE75
:1014D00010BD00BFF8B5074614460E4621B980007E
:1014E00000F098FE054600E00D4665B11CB960208D
:1014F00000F090FE04460CB1256305E026B92846AD
:1015000000F0DAFE00E0002424B1BA00A521206B2F
:1015100003F0C2FB2046F8BD70B504461546002313
:1015200006E0C85CE21882F83400CA5C12B10133EC
:10153000132BF6D9002384F84730072D00D907254F
:10154000E562256500266665201D00F063FC04F158
:10155000180000F05FFC2461C5F10805A561646214
:10156000A66584F85C6070BD38B5002407E004EB24
:10157000840293000E48184400F040FC0134072C0C
:10158000F5D90C4D284600F039FC0B4C204600F0F4
:1015900035FC0A4800F032FC094800F02FFC0948ED
:1015A00000F02CFC084B1D60084B1C6038BD00BFD0
:1015B000480000021C01000230010002F800000295
:1015C0002C0000024401000224000002400000023E
:1015D00038B504460D461D4B1868043000F044FC35
:1015E00050B91A4B1B68DA6A012303FA02F2184950
:1015F0000B6823EA02030B60B4F1FF3F07D135B15A
:10160000124B19680431134800F008FC38BD124B26
:101610001A6814440D4A126854601B689C4207D231
:101620000E4B1868094B1968043100F003FC38BDF3
:101630000B4B1868054B1968043100F0FBFB094B94
:101640001B689C4201D2074B1C6038BDF4000002AD
:101650005801000244010002100100024000000293
:1016600024000002140100022DE9F04782B08046F8
:101670008A46164699460B9F0D9A0C993046FFF7FD
:1016800029FF00284BD00446036B06F18045013D3D
:1016900003EB850525F0070500960E9B0A9A514637
:1016A000FFF73AFF4A4641462846FFF743FE2060CF
:1016B00007B13C60FFF766FE254A136801331360EB
:1016C000244B1B683BB9234B1C601368012B0DD1C5
:1016D000FFF74AFF0AE0204B1B683BB91D4B1B6814
:1016E000DB6A0A9A9A4201D31A4B1C601B4A1368A0
:1016F00001331360A364E36A012505FA03F0184976
:101700000A6802430A6003EB83039A00211D15480F
:10171000104400F083FBFFF745FE284601E04FF040
:10172000FF30012810D10C4B1B686BB1094B1B68B3
:10173000DB6A0A9A9A4207D94FF080520A4B1A6024
:10174000BFF34F8FBFF36F8F02B0BDE8F08700BFCC
:10175000F0000002F400000228000002180100025C
:10176000580100024800000204ED00E000B587B017
:101770000023049303930293124A01920093802260
:1017800011491248FFF770FF012801D100F0E2FB78
:10179000012813D14FF0A00383F31188BFF36F8F9B
:1017A000BFF34F8F4FF0FF32094B1A600122094BF4
:1017B0001A600022084B1A60FFF750FE07B05DF870
:1017C00004FB00BF0C010002B04E0000A91A00008B
:1017D000140100022800000210010002024A1368EE
:1017E00001331360704700BFE8000002014B186826
:1017F000704700BF10010002F8B5374B1B68002B83
:101800005DD1364B1A6801321A601F685FB9344ADD
:101810001168344B186810601960334A136801333B
:101820001360FFF733FE314B1B689F4203D2002643
:101830003AE0012600E00026294B1B681B680BB923
:10184000012300E0002323B14FF0FF32274B1A6041
:101850002AE0234B1B68DB68DC6863689F4202D286
:10186000224A136020E0251D284600F0FDFAA36AF5
:101870001BB104F1180000F0F7FAE36A012202FA42
:1018800003F11B4802680A43026003EB83039A00DA
:1018900029461848104400F0C1FAE26A164B1B684A
:1018A000DB6A9A42C5D2C7E7134B1B68DB6A03EBBE
:1018B00083039A000F4B9B58012B06D806E00F4A72
:1018C000136801331360002600E001260C4B1B68EF
:1018D00003B101263046F8BDE80000021001000205
:1018E0002400000240000002200000021401000257
:1018F0005801000248000002F40000024400000207
:101900005C01000238B5FFF73DFD2F4B1A68013A24
:101910001A601B68002B50D12C4B1B6833BB002472
:101920004EE02B4BDB68DC6804F1180000F09CFAF9
:10193000251D284600F098FAE36A012202FA03F115
:10194000244802680A43026003EB83039A00294695
:101950002148104400F062FAE26A204B1B68DB6AFF
:101960009A4204D301221E4B1A6000E00024184B57
:101970001B68002BD5D10CB1FFF788FD194B1B68F4
:1019800053B90DE0FFF738FF10B10122144B1A6074
:10199000144A1368013B1360124B1B68002BF1D1F2
:1019A0000F4B1B685BB14FF080520F4B1A60BFF3B7
:1019B0004F8FBFF36F8F012402E0002400E000246A
:1019C000FFF7F0FC204638BDE8000002F0000002FE
:1019D000F80000025801000248000002F400000272
:1019E0005C0100024400000204ED00E038B5054649
:1019F0000C46FFF7F3FE154B18682A68131990423E
:101A000005D29A4209D9984209D300220CE09A42A1
:101A100007D8984207D3002206E0002204E0012202
:101A200002E0012200E001222B601AB10021181A05
:101A3000FFF7CEFDFFF766FF38B94FF08052044B39
:101A40001A60BFF34F8FBFF36F8F38BD10010002D4
:101A500004ED00E010B51BE0FFF7C0FE0F4B1C6863
:101A6000FFF750FFA4B1FFF78DFC0C4BDB68DC687F
:101A7000201D00F0F9F90A4A1368013B1360094A76
:101A80001368013B1360FFF78DFC2046FFF718FD3C
:101A9000044B1B68002BDFD110BD00BF2C000002DF
:101AA000F0000002EC00000208B5FFF7D3FF064B80
:101AB0001B68012BF9D94FF08052044B1A60BFF319
:101AC0004F8FBFF36F8FF0E74800000204ED00E096
:101AD00038B51E4B1B681BB101221D4B1A6038BD67
:101AE00000221B4B1A601B4B1A6812681B681B6B89
:101AF0009A4205D8174B18681968343100F0C2FEB5
:101B0000154B1B68B3FA83F3DBB2C3F11F03134D0C
:101B10009900CA18900028444268546844601944E7
:101B20008A0008322A44944205D1606803EB83019D
:101B30008A002A44506003EB83039A00074B1A443F
:101B40005368DA68034B1A6038BD00BFE800000232
:101B50005C010002F400000258010002480000028B
:101B600010B50C46044B1968183100F063F90121D7
:101B70002046FFF72DFD10BDF400000238B50D46DC
:101B80001446064B1968183100F048F90CB14FF0B3
:101B9000FF3521462846FFF71BFD38BDF400000243
:101BA00038B5C368DC6804F11805284600F05CF914
:101BB000134B1B68A3B9251D284600F055F9E36AAD
:101BC000012202FA03F10F4802680A43026003EBA4
:101BD00083039A0029460C48104400F01FF903E0E3
:101BE00029460A4800F01AF9E26A094B1B68DB6AC9
:101BF0009A4203D90120074B186038BD002038BD38
:101C0000E80000025801000248000002F80000024B
:101C1000F40000025C010002034B1B680360034BED
:101C20001B684360704700BF2000000210010002E3
:101C300038B504460D46FFF7A5FB114B1A682B6813
:101C4000B3F1FF3F13D020680E490968884202D0E3
:101C500061688A420DD26168501A83420BD98A1A90
:101C600013442B602046FFF7D7FF002404E0002434
:101C700002E0012400E00124FFF794FB204638BD78
:101C800010010002200000020122014B1A6070477F
:101C90005C010002054B1B6823B1054B1B681BB997
:101CA0000220704701207047002070472800000282
:101CB000E800000200284AD038B50246C36A244929
:101CC0000968C96A8B4241D28169002905DB204934
:101CD0000968C96AC1F108018161506903EB830396
:101CE00099001C4B1944884201D1012300E00023D4
:101CF00043B31446151D284600F0B6F870B9E36AE0
:101D000003EB83018A0013498A583AB9012202FA87
:101D100003F311490A6822EA03030B600C4B1B68AA
:101D2000DB6AE362012202FA03F10B4802680A430C
:101D3000026003EB83039A0029460648104400F032
:101D40006DF838BD024B1B68DB6AD36238BD704743
:101D5000F40000024800000258010002002834D0BC
:101D600038B50346426D013A4265C06A196D884232
:101D70002DD072BB1C461D1D284600F075F870B9A9
:101D8000E36A03EB83018A0013498A583AB90122B6
:101D900002FA03F311490A6822EA03030B60236D78
:101DA000E362C3F10802A261012404FA03F00B49C3
:101DB0000A6802430A6003EB83039A002946064837
:101DC000104400F02BF8204638BD0020704700205A
:101DD00038BD002038BD00BF480000025801000295
:101DE000054B1B6823B1044B1A68536D01335365CF
:101DF000014B1868704700BFF400000200F10803AF
:101E000043604FF0FF328260C360036100230360D0
:101E1000704700BF00230361704700BF43684B60F9
:101E20009A688A609A685160996008610368013312
:101E30000360704730B40D68B5F1FF3F01D102690E
:101E400007E000F1080200E01A4653681C68A5424A
:101E5000FAD253684B6099608A60516008610368E8
:101E60000133036030BC7047036942688168916048
:101E70008268416851605A68904201D182685A6014
:101E8000002202611868013818607047064B1A6812
:101E90001368B3FA83F35B09036013B9D368186856
:101EA00070470020704700BF6001000208B5416024
:101EB000006191420AD8D21A83699A4211D2011D57
:101EC0000A4B1868FFF7B6FF002008BD9A4201D2FE
:101ED000994208D2011D064B1868FFF7ABFF00209E
:101EE00008BD012008BD012008BD00BF940100020B
:101EF0006001000230B583B0FFF744FA0F4B1B6856
:101F0000C3B90F4D2846FFF779FF0E4C2046FFF767
:101F100075FF0D4B1D600D4B1C6000220092134697
:101F20000C21022000F0D2FA044B186010B10849CD
:101F300000F036FCFFF736FA03B030BD9001000226
:101F4000680100027C0100026001000294010002AD
:101F5000B84E000000B587B0FFF7CCFF094B1B68F7
:101F600063B100230493039302930193022200922E
:101F7000502205490548FFF777FB00E0002007B035
:101F80005DF804FB90010002C04E0000D12100006A
:101F900030B585B0134C256805B31C4601910292FB
:101FA0000390052913DCFFF775FE022807D10023F3
:101FB000089A01A90B48006800F0A6FA0FE0002378
:101FC0001A4601A90748006800F09EFA07E00023BE
:101FD000224601A9284600F015FB00E0002005B0CC
:101FE00030BD00BF9001000270B582B01FE0DB6819
:101FF0001E68DC68251D2846FFF736FF636A204609
:102000009847E369012B12D1A36933449E4207D25A
:102010006360246129460C4B1868FFF70BFF06E04C
:10202000002100910B4632462046FFF7B1FF064BD8
:102030001B681A68002ADAD1044A1068024908604D
:10204000136002B070BD00BF600100029401000285
:1020500038B50546FFF7CAFB0446074B1B68984294
:1020600004D2FFF7C1FF01232B6001E000232B60A6
:10207000014B1C60204638BD6401000270B582B07F
:1020800005460E460E4B1B68DB68DC68201DFFF71B
:10209000EBFEE369012B0ED1A1692B4632462944A0
:1020A0002046FFF703FF30B1002100910B462A467E
:1020B0002046FFF76DFF636A2046984702B070BD67
:1020C0006001000270B582B006460C46FFF786FB41
:1020D00001A8FFF7BDFF019B1BBB054644B9B042F9
:1020E00006D3FFF70FFC29463046FFF7C7FF1AE07B
:1020F0002CB10E4B1B681C68B4FA84F464092246A8
:10210000711B0B4B186800F05FFBFFF7FBFB50B92E
:102110004FF08052074B1A60BFF34F8FBFF36F8FA2
:1021200001E0FFF7EFFB02B070BD00BF94010002B9
:102130009001000204ED00E030B587B03AE0039B67
:10214000002B37DB059C636913B1201DFFF78CFE64
:1021500002A8FFF77DFF039B092B2BD8DFE803F0D4
:102160000505052A1E2705052A1E0499A5690B46A3
:10217000024629442046FFF799FED8B1636A2046FB
:102180009847E369012B15D1A269002100910B4604
:10219000049802442046FFF7FBFE0BE00499A1617E
:1021A0000346024601442046FFF780FE02E0204637
:1021B00000F082F800231A4603A90448006800F0E2
:1021C00055FA0028BBD107B030BD00BF9001000216
:1021D00000B583B001A8FFF759FE0199FFF772FF20
:1021E000FFF7AAFFF6E700BF074B23F00703074AF4
:1021F000136000205060064A42F20871516010607E
:1022000059601A60704700BFAC0100029C010002D7
:10221000B428000270B50446FFF7E0FA224B1B68B1
:1022200023B9FFF7E1FF01221F4B1A6034B10834D4
:1022300014F0070F02D024F007040834621E42F2A3
:1022400006739A4228D819490B6801E019461346CB
:102250005A68944202D91A68002AF7D1144A934264
:102260001CD00D6808351A680A605A68121B102ABB
:102270000CD91E1972605C6074680C4900E011464C
:102280000A6850688442FAD832600E605968094A78
:1022900013685B1A136002E0002500E00025FFF7D9
:1022A00031FB284670BD00BF980100029C0100026E
:1022B000B428000204000002D0B170B50546A0F1B8
:1022C0000806FFF78BFA55F8044C0A4A00E01A4654
:1022D000136859688C42FAD845F8083C166055F8DE
:1022E000043C054A11680B441360FFF70BFB70BDFB
:1022F000704700BF9C0100020400000210B50446B4
:10230000FFF740F8A26BE36B9A4201D1012400E091
:102310000024FFF747F8204610BD00BF10B5044663
:10232000FFF730F8A36B0BB9012400E00024FFF79E
:1023300039F8204610BD00BF10B5144611B100FB9E
:1023400001F000E000205430FFF764FF034610B1B5
:1023500000F154022260184610BD00BF38B5044693
:102360001546026C3AB903685BBB4068FFF7F6FCA0
:10237000002363602CE06DB9806802F08BFCA268DA
:10238000236C1344A360626893421CD32368A36048
:1023900000201DE0C06802F07DFC236C5B42E26817
:1023A0001A44E26021688A4202D262681344E36000
:1023B000022D0AD1A36B53B1A36B013BA363002091
:1023C00006E0002004E0002002E0002000E0002001
:1023D000A36B0133A36338BD026C72B110B5C3683F
:1023E0001344C3604468A34201D30368C3600C462E
:1023F000C168204602F04EFC10BD704710B504467F
:10240000FEF7C0FF0BE0636A63B104F12400FFF73D
:10241000C7FB08B1FFF738FCA36C013BA364A36CB6
:10242000002BF0DC4FF0FF33A364FEF7BBFFFEF799
:10243000A9FF0BE0236963B104F11000FFF7B0FBC3
:1024400008B1FFF721FC636C013B6364636C002BF4
:10245000F0DC4FF0FF336364FEF7A4FF10BD00BF54
:1024600038B504460D46FEF78DFF2168E26B236CFC
:1024700003FB021060600020A063A160013A02FB30
:102480000313E3604FF0FF336364A3647DB92369F2
:10249000ABB104F11000FFF783FB80B14FF0805225
:1024A000094B1A60BFF34F8FBFF36F8F07E004F142
:1024B0001000FFF7A3FC04F12400FFF79FFCFEF7D8
:1024C00071FF012038BD00BF04ED00E070B582B09F
:1024D00006460D4602AC44F8042D2246FFF72CFFB9
:1024E000044670B10DB9206001E0019B0360E66312
:1024F000256401212046FFF7B3FF9DF8183084F8CA
:102500005030204602B070BDF0B585B004460F468D
:1025100001921E460025FEF735FFA26BE36B9A423F
:1025200001D3022E21D1324639462046FFF716FF4D
:10253000636A6BB104F12400FFF732FB88B14FF0FE
:1025400080522F4B1A60BFF34F8FBFF36F8F08E09D
:1025500038B14FF080522A4B1A60BFF34F8FBFF350
:102560006F8FFEF71FFF012048E0019B1BB9FEF7AC
:1025700019FF002042E01DB902A8FFF74DFB01251D
:10258000FEF710FFFFF72AF9FEF7FCFE636CB3F1CC
:10259000FF3F01D100236364A36CB3F1FF3F01D17E
:1025A0000023A364FEF7FEFE01A902A8FFF740FB8B
:1025B000F0B92046FFF7A2FEA0B1019904F1100086
:1025C000FFF7CEFA2046FFF719FFFFF79BF9002827
:1025D000A1D14FF080520A4B1A60BFF34F8FBFF367
:1025E0006F8F98E72046FFF709FFFFF78BF992E717
:1025F0002046FFF703FFFFF785F9002005B0F0BD87
:1026000004ED00E070B5EFF311854FF0A00484F302
:102610001188BFF36F8FBFF34F8F866BC46BA642D9
:1026200001D3022B18D1164604461A46FFF796FE30
:10263000A36CB3F1FF3F0AD1636A7BB104F12400BC
:10264000FFF7AEFA60B16EB1012030600BE0A36C11
:102650000133A364012006E0002004E0012002E031
:10266000012000E0012085F3118870BDF0B585B030
:1026700004460F4601921E460025FEF783FEA36B1B
:102680008BB3E56839462046FFF7A6FEBEB9A36BBB
:10269000013BA363236813B9FFF7A2FB60602369C2
:1026A000EBB104F11000FFF77BFAC0B14FF080529C
:1026B0003A4B1A60BFF34F8FBFF36F8F0FE0E560A7
:1026C000636A63B104F12400FFF76AFA38B14FF08E
:1026D0008052324B1A60BFF34F8FBFF36F8FFEF7FC
:1026E00061FE012057E0019B1BB9FEF75BFE002055
:1026F00051E01DB902A8FFF78FFA0125FEF752FE3F
:10270000FFF76CF8FEF73EFE636CB3F1FF3F01D1BB
:1027100000236364A36CB3F1FF3F01D10023A364E2
:10272000FEF740FE01A902A8FFF782FA38BB204657
:10273000FFF7F4FDE8B1236833B9FEF723FE6068C4
:10274000FFF7B8FAFEF72EFE019904F12400FFF717
:1027500007FA2046FFF752FEFFF7D4F800288CD185
:102760004FF080520D4B1A60BFF34F8FBFF36F8F46
:1027700083E72046FFF742FEFFF7C4F87DE72046D7
:10278000FFF73CFEFFF7BEF82046FFF7C7FD002825
:102790003FF473AF002005B0F0BD00BF04ED00E0D2
:1027A00000230BE0074A52F8332032B9054A42F8B9
:1027B000331002EBC303586070470133092BF1D982
:1027C000704700BF002C000270B504460D46164647
:1027D000FEF7D8FD636CB3F1FF3F01D100236364C2
:1027E000A36CB3F1FF3F01D10023A364FEF7DAFD30
:1027F000A36B2BB93246294604F12400FFF7BEF93A
:102800002046FFF7FBFD70BD30B587B00B4D2C683F
:1028100014442C6042F20F75AC4201D900BFFDE7B1
:1028200000240494039402940B9C01940A9C009449
:1028300092B2FEF719FF07B030BD00BFBC280002FE
:1028400010B582B00446FEF7D1FF02AB43F8040D89
:1028500021461846FFF7CAF802B010BD08B501229C
:10286000074B1A70022000F069FB022000F09AFE6C
:10287000022000F061F80220FFF7E2FFF2E700BF5C
:10288000C028000208B5064801F0C0FD4FF0A003C3
:1028900083F31188BFF36F8FBFF34F8FFEE700BF45
:1028A000C84E000000B583B001F088FB0B2002F099
:1028B0006DF80B2002F080F80C2002F041F84FF088
:1028C000E05001F0CFFE00F019F901F0BFFE08B1B1
:1028D00000F028F800F016F800F046FB00F026FCA7
:1028E000002301934FF6FF720092802203490448AF
:1028F000FFF78AFF03B05DF804FB00BFE84E00005D
:102900005D28000008B50022054B1A6401F0C0F9EB
:1029100000F0F4FE00F05EFF01F01CFA08BD00BFFD
:10292000502C000208B501F0D7F900F0F1FE00F0DC
:1029300067FF01F029FA08BD10B586B084B22046C1
:1029400000F0EEFE204601F045FA204601F0CCF9F9
:10295000204600F057FF12E0684601F0C7F96846CC
:1029600000F004FF684601F039FA684600F0AEFF57
:10297000074B1C6C1CB101F0D7FB6946A0476946A8
:10298000002000F0D1FA0028E6D006B010BD00BF4C
:10299000502C000238B1064B1A6B586B054B03EAFA
:1029A0000043D0187047024B586BC0F38A00704741
:1029B00000000F400000FF1F71B182B20E4B1A637E
:1029C0005A6B22F4FF5222F01F025A635A6BC0F373
:1029D0000C40104358637047074A536B23F4FF536E
:1029E00023F01F035363516B41F6FC7303EA80002D
:1029F00008435063704700BF00000F40B0F1005F14
:102A000007D1064B9A6AD86A054B03EA0043D018EF
:102A10007047024BD86AC0F38A00704700000F402D
:102A20000000FF1FB1F1005F0ED182B20F4B9A621E
:102A3000DA6A22F4FF5222F01F02DA62DA6AC0F385
:102A40000C401043D8627047084B4FF6FF729A62F1
:102A5000DA6A22F4FF5222F01F02DA62D96A41F6E2
:102A6000FC7202EA80000843D862704700000F4001
:102A70007F22074B5A62064B1B6A13F4004FFAD1B0
:102A8000034B1862024B1B6A13F4004FFAD17047D4
:102A900000000F40890041F0FB01074B5962064BD3
:102AA0001B6A13F4004FFAD1034B1862024B1B6AE6
:102AB00013F4004FFAD1704700000F4010B50446E0
:102AC000FFF7D6FF044A536B43F4004353630021DE
:102AD0002046FFF7DFFF10BD00000F4010B5044691
:102AE000FFF7C6FF044A536B23F4004353630021EE
:102AF0002046FFF7CFFF10BD00000F4038B5002380
:102B000008E003F1C801324A02EB81020021516062
:102B10000133DBB2002BF4D02D4D012385F8343086
:102B20000024A5F84442294641F8383B18230A22DC
:102B300005F5947001F05CFA18230A2205F5A071DE
:102B400005F50C7001F054FA01F0F2FD272001F0B8
:102B5000F7FE272001F01AFF272001F02DFF1D4A64
:102B60004B2313601C4B1B681C49A1FB0313DB0C9C
:102B7000013B03F03F0343F40C53D360C2F88041A0
:102B800004E0601CC0B2FFF7A9FF01341F2CF8DD80
:102B90004FF00062124B1A60124B80221A675A677C
:102BA0001C21612001F0CCFD1D21622001F0C8FD37
:102BB00007480123C82200F5177100F5127001F0D3
:102BC00017FA044A136823F041031360002038BD4C
:102BD000C828000200000F40842D000283DE1B4342
:102BE00000E100E000800F402DE9F8430E46174653
:102BF0001D4672B6002423E0404B1A680123A3400F
:102C000013421BD0601CC0B2FFF732FFB5F1005F6A
:102C100014BF4FF000084FF001084046FFF7BAFE1E
:102C2000B0420BD14FF00050FFF7E8FEB84205D19B
:102C3000334B5B6BC3F38033434505D00134E4B2BF
:102C40001F2CD9D9002100E0012100294ED10023F9
:102C50004AE02A4A126899464FF0010808FA03F838
:102C600012EA080F3ED10133DCB22046FFF736FFEF
:102C70002046FFF7FDFE29463846FFF7D3FE204BDE
:102C8000DA6A42F44042DA6200225A63B5F1005F28
:102C900014BF002101213046FFF78EFEB5F1005F21
:102CA00005D1174A536B43F48043536304E0144A3D
:102CB000536B23F4804353634FF4A452104B9A6335
:102CC00000212046FFF7E6FE2046FFF7F7FE0B4AFD
:102CD000136843EA0803136049460A4801F096FB6B
:102CE000012103E00133DBB21F2BB2D909B100206F
:102CF00000E0202062B6BDE8F88300BFC8280002CB
:102D000000000F40F04E0000254BB3F94432002B79
:102D100044DC00B587B06946224801F09BF90028E1
:102D200039D172B60120FFF7D9FE0499B1F1005FE5
:102D300014BF002101210298FFF73EFE1A4B5B6B86
:102D4000049AB2F1005F02D14FF4604201E04FF407
:102D500020421A43144B5A639DF80C2042F4094256
:102D600042F080029A63BDF80020DA63BDF80220C9
:102D70001A64BDF804205A64BDF806209A64012143
:102D80000846FFF787FE0120FFF798FE0822044B54
:102D9000A3F8442262B607B05DF804FB704700BF99
:102DA000C8280002F82A000200000F402DE9F04177
:102DB00088B0424B1B690793079B202B6CD83F4B75
:102DC000D3F84021D3F8447142EA074761E0012576
:102DD000A5403D4257D072B6601CC0B2FFF748FE16
:102DE000002C46D0354B5B6B13F4804F02D04FF074
:102DF000005000E000200490304EB36B03F00F034E
:102E00008DF80C30003018BF0120FFF7C3FD80465D
:102E10000290F36BADF80030336CADF80230736C98
:102E2000ADF80430B36CADF8063001F08DFB00F561
:102E3000C060804519D1049BBBB9009A204B9A42CF
:102E400013D19DF80C30042B08D80EE0311D6944D5
:102E50001C4801F0D7F80136F6B200E000269DF8D4
:102E60000C30043B9E42F1DB03E06946164801F05A
:102E7000C9F827EA050762B62CB90020134BA3F85E
:102E80004402FFF741FF0134E4B200E000241F2CAC
:102E90009DD9002FFAD109E0084B5B6813F0800F31
:102EA00004D0064A136823F001031360034A5368F1
:102EB00023F01803536008B0BDE8F08100000F4014
:102EC00022FF5F00102B0002F0290002C828000238
:102ED0000B4B5B6813F0800F0BD1094B5B6813F051
:102EE000200F08D1064B5B6813F0400F05D100207E
:102EF000704703207047042070470520704700BFCB
:102F000000000F4008B50146014801F0A3F808BDD4
:102F1000102B000208B572B6024801F073F862B6D1
:102F200008BD00BFF82A000208B572B6024801F0D9
:102F300091F862B608BD00BFF029000208B5094A41
:102F4000B2F94432002B03DD1B1AA2F8443205E02B
:102F500023B94FF6FF72034BA3F844220020FFF77A
:102F6000D3FE08BDC828000270B500214FF0804094
:102F700001F00CFC34494FF0804001F02DFC4FF083
:102F800080400023C36601F039FC4FF080431B688A
:102F900013F0804FF9D12C4E31464FF0804001F0B4
:102FA0001BFC022001F0E0FB284C8025A5610320DA
:102FB00001F0DAFB6561042001F0D6FB25610520F4
:102FC00001F0D2FBE560062001F0CEFBA5600720F2
:102FD00001F0CAFB6560082001F0C6FBC4F8805010
:102FE000092001F0C1FBE5670A2001F0BDFB256067
:102FF0000B2001F0B9FBA567A4F5F02400212046C1
:1030000001F0C4FB3146204601F0E6FB0023E366F5
:10301000204601F0F3FB0E4B1B6813F0804FFAD1F2
:1030200009490B4801F0D8FB122001F09DFB074C29
:1030300080256563132001F097FBA563152001F03F
:1030400093FB2564002070BD404B4C0000800F4076
:103050000000084038B504460B2830D84FF0004235
:1030600000214FF0804001F0E7FB0123A34043F42F
:1030700080234FF08045AB604FF00042002128468E
:1030800001F0D0FB4FF080620021284601F0CAFB1E
:1030900007E04FF08052234B1A60BFF34F8FBFF30E
:1030A0006F8F4FF080431B69002BF2DA04F10803A5
:1030B0004FF0804252F82300C0F30B1001E04FF0B4
:1030C000FF300B2C2CD90C3CE4B2174D4FF00042D2
:1030D0000021284601F0B0FB0123A34043F48023E4
:1030E000AB604FF000420021284601F09BFB4FF0FF
:1030F00080620021284601F095FB07E04FF08052E6
:10310000084B1A60BFF34F8FBFF36F8F064B1B69DD
:10311000002BF3DA0834044B53F82400C0F30B10EF
:1031200038BD00BF04ED00E00000084010B50E4CB3
:10313000204601F0ABFA42F21071204601F0D8FAB5
:103140000021712001F0FCFA00220121204601F04B
:10315000ADFAD4F800325B08C4F80432636823F097
:1031600004136360002010BD0080011C08B5044BEF
:103170001A68044B1968044801F048F908BD00BFFB
:103180001800000214000002284F000070B51E460F
:10319000002412E0184B1B6825012B445968306845
:1031A00001F030FE40B9144B1B681D44AA686968E1
:1031B000124801F02BF970BD01340F4B1B799C4272
:1031C000E8DB002412E00E4B03EB04135D68294694
:1031D000306801F017FE40B9094B03EB0414A268F4
:1031E0002946064801F012F970BD0134052CEAD9D0
:1031F000044801F00BF970BD942C0002384F000018
:10320000C4520000444F000010B51C4612B9002003
:1032100001F00EF923681BB1012001F009F910BD7E
:10322000002001F005F910BD08B501F0B1F910B9A1
:10323000014801F0EBF808BD704F000008B501F03F
:103240006DF910B9014801F0E1F808BD784F0000B0
:1032500008B5074B1860197100225A719A71054B15
:103260001A68054B1968054801F0D0F808BD00BF81
:10327000942C00021800000214000002844F000089
:10328000014B1879704700BF942C000210B50F480D
:1032900001F0BCF8002407E00D4B03EB0413596860
:1032A0000C4801F0B3F80134052CF5D9002408E0EE
:1032B000094B1B6803EB04135968064801F0A6F894
:1032C0000134FFF7DDFF8442F2DB10BD404F000008
:1032D000C4520000984F0000942C00022DE9F043E6
:1032E00083B06E4B1B68002B00F0D380002502A832
:1032F000002300F8013DFFF705FE002840F0CA80DA
:10330000664B5B79C72B04D90022644B5A71122596
:10331000EDE701210DF1070000F038F99DF80730C5
:103320001B2B07D106215E4800F030F900225B4BD1
:103330005A71DCE7082B07D1584B5B79002BD6D0AC
:10334000013B564A5371D2E70D2B02D00A2B40F0B5
:103350009980524B5B791BB9524801F057F8C6E788
:103360004E4A134400249C71274626463EE0F4B1A1
:103370004A4B23449B79222B19D1A7B9631E474A94
:1033800013449B799BB913190021997106F1190116
:1033900002EBC10302201871631C1344063342F888
:1033A0003130012703E03D4B234400279F71E7B9EB
:1033B0003A4B23449B79202B17D1384B23440022CE
:1033C0009A71032E11DCDFF8D48006F11A0908EB9C
:1033D000C90301221A71A018404400221146063088
:1033E00001F0D2FC48F83900013601342B4B5B79EF
:1033F0009C42BCDB0024294B5C7118E0274850F844
:10340000063B27013B44596801F0FCFC70B9234B93
:103410001B683B44DC6884B100F086FE1F4B53F808
:10342000D01B3246C95BA047012707E00134FFF7F4
:1034300027FF8442E2DB002700E00127F7B90024E0
:1034400015E0194B03EB04135968184801F0DAFC36
:1034500060B9154F24013B19D3F80C8000F064FECD
:10346000134B3246395BC047012702E00134052C7B
:10347000E7D91FB90D490F4800F0C8FF094800F00F
:10348000C5FF34E705494A79501C48710A449371D5
:103490002DE71525284603B0BDE8F083942C0002E3
:1034A000A04F0000A84F0000C45200009A2C000258
:1034B000642D0002AC4F000030B587B000240094AA
:1034C0000194029403940494059401F03DF800F5EE
:1034D000B06002901D4BDD882B1D8DF80C3042230F
:1034E0008DF80030FF238DF801305F238DF8023016
:1034F0008DF8034023460CE01A1D14490868098919
:1035000003FB01F1415C06A8024402F8181C0133D8
:10351000DBB29AB2AA42EFD300200C4BD88004222F
:103520000B4B1A70FFF7D4FC18B109E00120FFF72C
:1035300087F969460020FFF7EDFC0028F6D103E08B
:1035400069460020FFF7E6FC07B030BD0800000226
:10355000F42B00020B4B1B788BB110B582B002A983
:1035600001F8010D084C204600F09AFDE288A3887E
:103570009A4201D1FFF7A0FF012002B010BD012047
:10358000704700BFC02800020800000270B5064660
:103590000D46002403E0305DFFF7DCFF0134AC4250
:1035A000F9D370BD084AD28862B108B5074B93F9C8
:1035B0000030002B03DD1B1A044A137008BDFFF70F
:1035C0007BFF08BD704700BF08000002F42B00021B
:1035D0000023036041608360704700BF30B403681C
:1035E00003EB012101608468621C826091FBF2F3AD
:1035F000C3604568AA4202DDC91A016084601846AA
:10360000002B01DA03F1FF00001230BC704700BF4D
:1036100001604372426000230372704730B4027A43
:10362000437A9A4208D1056844682C448C4203DAF4
:1036300083F00103037207E09A4205D004684268F0
:103640002244914200DA037230BC704710B5CB7847
:1036500013F0C00F04D08B78934206D2002407E009
:103660008B789A4203D0002402E0012400E0012478
:103670001CB110B10C2201F00DFB204610BD00BFA3
:103680002DE9F04105460F4690460024214612E000
:1036900004EB44029300174AD35AAB420AD104EB1D
:1036A000440293003A46134919444046FFF7CEFFBF
:1036B000064601210134072CEAD9B9B9002411E0EA
:1036C00004EB440293000C4AD35A9D4209D104EB07
:1036D000440293003A46084919444046FFF7B6FFB2
:1036E0000646013401F0D0F9A042E9D83046BDE8E1
:1036F000F08100BF24530000FC2B0002024BB3F802
:103700008820024BDA627047882D0002502C00029C
:103710004FF47A72014BA3F888207047882D00027D
:1037200010B586B00E4900F04FFCB0B10D4BB3F8A8
:1037300088100D4AD16200240494B3F8843003F554
:10374000E063029300F000FB8DF8000001238DF888
:103750000C3069462046FFF7DDFB06B010BD00BF08
:103760007C2C0002882D0002502C0002704700BF04
:10377000037B082B28D1027802F0E003202B18D11C
:1037800012F0020F0ED012F0010F06D0C2F3810228
:10379000C2F104020A60032070474FF0FF330B6050
:1037A0000320704712F0010F10D043680B60042013
:1037B0007047402B04D14FF0FF330B60052070475A
:1037C000802B05D1022070470120704701207047EF
:1037D0000120704708B5084BB3F8841000234FF060
:1037E000FF3201F5C0611846FFF7FEF90122034BD5
:1037F00083F8302008BD00BF882D0002502C000245
:10380000704700BF704700BF30B587B000250495F2
:103810000C4CB4F884402044029008208DF80C0031
:1038200080208DF800008DF80110090A8DF8021033
:103830008DF80320019369462846FFF76BFB07B01C
:1038400030BD00BF882D000270B504460D461646F7
:103850004378807803EB00200A46E17880B2FFF7D6
:103860000FFFF0B12B7A334228D1012E0CD16378AF
:10387000A17803EB0121124BE27889B24FF4B060DA
:10388000FFF7C2FF002070BD6378A17803EB012130
:103890000C4BE27889B24FF4B060FFF7B5FF00201F
:1038A00070BD6378A17803EB0121074BE27889B200
:1038B0004FF4B060FFF7A8FF002070BD012070BD7D
:1038C00001000106020001060000020670B58AB080
:1038D0000446836803F07F03B74AB2F8842093421A
:1038E00046D0B64A92F8302012F00F0F40D1007B3C
:1038F00004283DD96178A57801EB0521AF4DAD8E47
:10390000A94235D1E578AD4991F836108D422FD1D5
:10391000AA4991F837108B422AD12378802B04D101
:103920000222A64B83F8302022E0102A04D1032281
:10393000A24B83F830201BE0202A19D19F4BD96B72
:10394000043800F0C7FBC2B2237813F0010F07D090
:10395000C3F381031146C3F1040000F0BBFBC2B204
:10396000964D211DA86B01F095F9032385F83030A1
:10397000A36803F07F03904AB2F88420934240F09A
:103980007F810AA9002341F8283D2046FFF7F0FE79
:10399000022834D100250895874BB3F8843003F50D
:1039A000B063069308228DF81C20214604A801F07C
:1039B00071F904A92846FFF7ADFA72B67F4B93F868
:1039C0003030012B19D0A36803F07F037B4A92F8B3
:1039D0003720934211D16378A27803EB0223774A10
:1039E000928E934209D1E278744B93F836309A4222
:1039F00003D10222714B83F8302062B640E10528E2
:103A00007ED1012201A92046FFF71EFF002800F009
:103A100037819DF8073013F0300F22D072B6674B14
:103A200093F83030012B11D1644B302283F83020D1
:103A30006278A17802EB01229A86E27883F8362038
:103A40005D4AB2F8842083F8372008E05C4B9DF88B
:103A50000620BDF804104FF4B060FFF7D5FE62B643
:103A60000EE100210891544BB3F8843003F5B063A4
:103A7000069308228DF81C2004A801F00DF99DF88A
:103A8000076006F00705C5F104039B0043F04303FC
:103A90008DF81030BDF804308DF811301B0A8DF808
:103AA0001230E3788DF8133016F0C0061DD0E3789D
:103AB000EBB99DF806308DF814301CE05EB1101D96
:103AC000E178013901FB05220299895C0AAA0244C6
:103AD00002F8181C06E004320299C95C0AA80244E4
:103AE00002F8181C01335BB202E0002300E000235F
:103AF0001A469D42E2DC04A90020FFF70BFABFE062
:103B0000032840F0B080022201A92046FFF79CFE66
:103B1000002800F0B580237813F0010F16D09DF82F
:103B2000072002F00702C3F38103C3F104039A42A2
:103B30000ED06378A17803EB0121224BE27889B2A1
:103B40004FF4B060FFF760FE002302E0012300E0C5
:103B500001239DF8072012F0C00F0CD0E27852B973
:103B60006378A17803EB0121164B89B24FF4B06062
:103B7000FFF74AFE0023002B00F082809DF80730FB
:103B800013F0300F3ED072B60C4B93F83030012B4F
:103B90001AD10A4B402283F830206278A17802EBD8
:103BA00001229A86E27883F83620034AB2F884200C
:103BB00083F8372011E000BF882D0002502C00024E
:103BC00000000606000001062E4B9DF80620BDF8F9
:103BD00004104FF4B060FFF717FE62B650E010F02B
:103BE000C00F08D0E078013800FB01210432A05C4E
:103BF000029A505403E00432A15C029AD15401337A
:103C00005BB200E000231A469DF8070000F00701B0
:103C10008B42E4DB1C4BB3F8843003F5B0630693AE
:103C20000025089508228DF81C20294604A801F0DB
:103C300033F860238DF81030BDF804308DF8113062
:103C40001B0A8DF81230E3788DF813309DF80720A9
:103C500002F00702211D05A801F01CF804A928465E
:103C6000FFF758F90CE001280AD16378A17803EB3B
:103C70000121064BE27889B24FF4B060FFF7C4FD32
:103C80000AB070BD00000606882D00020100040580
:103C900000B587B07F220E4B1A7000234FF0FF3221
:103CA00019461846FEF7A0FF00200490094BB3F810
:103CB000843003F5E063029380238DF80030012304
:103CC0008DF80C306946FFF725F907B05DF804FB65
:103CD000502C0002882D00020F22024BA3F88420F2
:103CE000704700BF882D0002704700BF08B5836889
:103CF00023BB037B012B21D9437899B2104AB2F838
:103D00008420914200D0CBB90378802B13D004D803
:103D1000012B05D0022B07D008BD822B08D908BD86
:103D20000522084B1A7008BD0422064B1A7008BD04
:103D300000F07EFB08BD7F22024B1A7008BD00BF59
:103D4000882D0002502C0002014B1878704700BFEC
:103D5000502C000210B584B0002410E004F5A050EF
:103D600001AA002180B2FFF78BFC38B100234FF08D
:103D7000FF32029909681846FEF736FF0134002C1D
:103D8000ECDD04B010BD00BF70B4002618E00E4C8E
:103D900006F1100304EBC3030C330C4A02EBC6021A
:103DA00092E8030083E8030073011C449434084D37
:103DB0001D440FCD0FC495E80F0084E80F000136B5
:103DC000002EE4DD70BC7047882D00028453000093
:103DD0008C53000008B5FFF7B7FF08BD2DE9F04F81
:103DE00087B08346FFF7B0FF052802D10123019376
:103DF00001E000230193DBF810300BB100230193A5
:103E0000019B002B40F0CB80CFE01FFA8AF403AA7D
:103E1000002104F5A050FFF733FC38B19DF80F30B6
:103E200013F0C00F05D0DDF8048004E04FF0000867
:103E300001E04FF00008B8F1000F07D0049B1A68AA
:103E4000DBF808309A4201D04FF00008B8F1000FBB
:103E500010D004F5B05403AA00212046FFF710FC4F
:103E600040B9534B002221464FF4C060FFF7CCFC11
:103E70004FF00008B8F1000F00F08C80049F002480
:103E8000264684E0254607EB8403DB78F1189BF88F
:103E90000C20914201DCC14601E04FF000090BB952
:103EA0004FF0000907EB850303AA997837F825003E
:103EB000FFF7E6FB80B907EB85093D4B99F8022037
:103EC00037F825104FF4C060FFF79EFC99F80330D7
:103ED0001E44F6B24FF00009B9F1000F55D007EBC0
:103EE0008503DA789DF80F3003F007039A4210D962
:103EF00007EB85092F4B99F8022037F825104FF46E
:103F0000C060FFF781FC99F803301E44F6B24FF011
:103F10000009B9F1000F38D09DF80F0010F0C00F64
:103F200026D007EB85039A783AB9234B37F825104A
:103F30004FF4C060FFF768FC22E09DF80E309A4213
:103F400007D91B4B37F825104FF4C060FFF75CFC16
:103F500016E000F0070002F1FF3E07EB8502D27881
:103F60000BEB0601049B0EFB003000F093FE07E014
:103F700007EB8503DA780BEB0601049800F08AFE64
:103F800007EB8505EB781E44F6B20134E4B2072C4A
:103F90007FF678AF0AF1010A5FFA8AFA01E04FF082
:103FA000000ABAF1000F3FF430AF07B0BDE8F08F60
:103FB000000002060000010641000406014B1860E3
:103FC000704700BFF82B000271B10B68834203D326
:103FD0001B1A0B6000207047B3F1FF3F06D04FF073
:103FE000FF330B60012070470120704700207047AD
:103FF000016082800022C28003720161C1601046AC
:10400000704700BFF8B10246C088938898421CD21E
:1040100010B4002307E0D068CC5C0470D068013095
:10402000D0600133DBB2107A8342F4D3D4681168D4
:10403000938800FB0310844200D1D160D388013300
:10404000D380002003E02D2070471220704710BC61
:10405000704700BFF0B10246C388EBB1002308E00F
:1040600011B110690078C854106901301061013332
:10407000DBB2107A8342F3D310B4146911689388C9
:1040800000FB0310844200D11161D388013BD3802F
:10409000002003E02D2070471720704710BC7047A8
:1040A00098B138B50346C588828895420FD2044638
:1040B00031B100681B891A4603FB050000F0EAFDD8
:1040C000E3880133E380002038BD2D2070471220A3
:1040D00038BD00BF8842A8BF0846704782B0ADF81F
:1040E000060016E00023009303E000BF009B0133AD
:1040F00000930B4B1B680B4AA2FB0323009AB2EB05
:10410000133FF2D3BDF806309BB2013B9BB2ADF832
:104110000630BDF806309BB2002BE3D102B07047E9
:10412000842D000273B2E745014B1868704700BF49
:10413000F82B000208B5034800F068F96420FFF787
:10414000CDFF08BDC453000008B5034800F05EF978
:104150006420FFF7C3FF08BDCC53000008B5034837
:1041600000F054F96420FFF7B9FF08BDDC530000EC
:1041700008B5034800F04AF96420FFF7AFFF08BD17
:10418000EC53000008B5034800F040F96420FFF745
:10419000A5FF08BDFC53000008B528B102681170E6
:1041A00002680132026008BD0846FFF7D3F908BD76
:1041B0002DE9F04107460E46151E05DC4FF020089C
:1041C00014E00131013201E00A4600211078002894
:1041D000F7D1A94201DA6D1A00E0002513F0020FB1
:1041E00002D14FF0200801E04FF0300813F0010F2A
:1041F00008D000240FE041463846FFF7CDFF0134D8
:10420000013D00E00024002DF5DC04E03846FFF716
:10421000C3FF0134013631780029F7D105E041466A
:104220003846FFF7B9FF0134013D002DF7DC204689
:10423000BDE8F081F0B585B005460C9E59B9302334
:104240008DF8043000238DF805300B9B0A9A01A9E4
:10425000FFF7AEFF40E0084633B10A2A06D1002935
:1042600006DA4842012704E0002702E0002700E0C8
:10427000002704AC002304F8013D0DE0B0FBF2F38D
:1042800002FB1303092B02DDA6F13A010B44303384
:1042900004F8013DB0FBF2F00028EFD1A7B10A9B72
:1042A00063B10B9B13F0020F08D02D212846FFF7B6
:1042B00073FF0A9B013B0A93012606E02D2304F8B5
:1042C000013C013C002600E000260B9B0A9A214697
:1042D0002846FFF76DFF304405B0F0BDF0B587B05C
:1042E00006460C461F46002583E0252B7BD1621C29
:1042F0006378002B00F08180252B73D02D2B02D109
:10430000A21C012300E00023144602E0013443F024
:1043100002032278302AF9D0002205E002EB820263
:1043200050003039421801342178A1F13000C0B278
:104330000928F3D9732908D13968043701B93249FA
:104340003046FFF735FF054452E0642901D0692962
:104350000CD1396804376120029001930092012347
:104360000A223046FFF766FF054441E078290CD168
:1043700039680437612002900193009200231022D3
:104380003046FFF757FF054432E058290CD1396811
:1043900004374120029001930092002310223046FE
:1043A000FFF748FF054423E075290CD1396804372D
:1043B000612002900193009200230A223046FFF709
:1043C00039FF054414E0632912D1397804378DF898
:1043D000141000218DF8151005A93046FFF7E8FEEE
:1043E000054405E0144621783046FFF7D5FE013537
:1043F00001342378002B7FF478AF16B133680022A4
:104400001A70284607B0F0BD185400000FB400B56C
:1044100083B004AB53F8041B01934FF0FF3200202C
:10442000FFF75CFF03B05DF804EB04B0704700BF1A
:10443000BFF34F8F0449CA6802F4E062034B134391
:10444000CB60BFF34F8FFEE700ED00E00400FA05FC
:104450002DE9F0418AB006460C46154600F068F991
:1044600072B6B4F5007F0AD003D8B4F5807F08D1C6
:1044700005E0B4F5806F02D0B4F5805F01D1002073
:1044800000E00C202F0B2B19013B4FEA13380028BA
:1044900039D1322305930697CDF81C8001A905A8D0
:1044A0001B4B9847019800282DD13423059306977C
:1044B000CDF81C80174B1B68174AA2FB03239B09EE
:1044C000089301A905A8124B98470198D8B932233F
:1044D00005930697CDF81C8001A905A80C4B9847B9
:1044E000019880B933230593069507960894094BE4
:1044F0001B68094AA2FB03239B09099301A905A88C
:10450000034B9847019862B60AB0BDE8F08100BF3E
:1045100005020003842D0002D34D621008B509483E
:10452000D0F8B830B3FA83F35B09C0F8B8304FF471
:104530007C324FF480717C30FFF78AFF00B10C2091
:1045400008BD00BF882D0002014B1878704700BFDE
:1045500008F0030010B4002314E0441C027883EA3E
:104560000223082213F4004F05D041F2210080EA13
:1045700043039BB201E05B009BB2013A12F0FF02E1
:10458000F0D120460139E8D5184610BC704700BF6D
:1045900038B5002307E0174A995C03F57C3212789E
:1045A000914204D101333F2BF5D9012300E00023D0
:1045B000E3B940211048FFF729FF104C104B1B684E
:1045C000E367104B1B68C4F8803004F17C053C2184
:1045D0002846FFF7BFFFC4F8B8004FF47C324FF411
:1045E00080712846FFF734FF10B938BD002038BD70
:1045F000054838BD042E000220540000882D00021A
:1046000014000002180000020C00000810B5082475
:1046100000230B490B4A04E011F8010B02F8010BCF
:104620000133A342F8DB0848D0F8B8403C217C3085
:10463000FFF790FF844201D1002010BD0E2010BD75
:1046400038F003003C2E0002882D000208B5382205
:104650004FF47C31024800F01DFBFFF7D7FF08BD87
:10466000042E000208B50E2000F06AF90F2000F0B9
:1046700067F9102000F064F90B2000F061F90B20BD
:1046800000F084F90B2000F097F908BD10B5C0F3D5
:10469000833000F11C04204600F052F9204600F05F
:1046A00075F9204600F088F910BD00BF30B441F420
:1046B000805501F1600300EBC3046560012440F8FC
:1046C000334002F1A00340F8334004FA01F100EB5B
:1046D000C3035960816DA24003239340DB4319401B
:1046E00094400C438465426D1340436530BC704771
:1046F00038B504460D4600F03DF9B0FBF5F06368AF
:1047000043F004136360636843F00813636000239D
:10471000E364C4F80031C4F800024FF48053C4F8D5
:1047200004330123C4F8003303F50033236038BD9C
:1047300008B500F01FF9014B186008BD842D000278
:1047400030B400F00F03DB000009064D55F820409F
:10475000FF229A4024EA02029940114345F82010B2
:1047600030BC70470080034010B400F01F04C00943
:104770000549703051F820200123A34022EA0303A9
:1047800041F8203010BC70470080034038B5044623
:104790000D46B0F1804F0DD14FF4806000F024F948
:1047A0001B2000F0CDF81B2000F0F0F81B2000F0DB
:1047B00003F90CE04FF4006000F016F91C2000F043
:1047C000BFF81C2000F0E2F81C2000F0F5F80023F0
:1047D0006366256038BD00BF38B505460C4600F05D
:1047E000C9F8B0FBF4F000B901200138C0B22B6861
:1047F00023F0FF031843286038BD00BF10B50446FE
:10480000036843F080430360036823F4807303600C
:104810000349FFF7E1FF236823F48063236010BDA1
:1048200020A10700023150F8213023F07C731A4395
:1048300040F82120704700BF023150F8213023F0AA
:104840007C7323EA020240F82120704700F03F0009
:1048500000FB0110704700BF10F0030002D00128D8
:1048600002D004E003487047034B186870470020EB
:10487000704700BF001BB700244F000008B5034B72
:10488000D3F8A000FFF7E8FF08BD00BF00400740D5
:1048900010B5054BD3F89841FFF7F0FF01462046CD
:1048A000FFF7D4FF10BD00BF00400740094BD3F80D
:1048B0008030DBB2012B05D013B1022B07D004E00E
:1048C00005487047054B186870470020704704483A
:1048D000704700BF00400740001BB700244F000096
:1048E000D8AC070008B50C4BD3F88430DBB2032BEF
:1048F0000FD8DFE803F00205080BFFF7D7FF08BD6C
:10490000FFF7BCFF08BDFFF7C3FF08BD034B1868E6
:1049100008BD002008BD00BF00400740204F000038
:1049200008B5064BD3F8843013F0FF0F02D1FFF720
:10493000BDFF08BDFFF7D6FF08BD00BF0040074020
:104940001F280AD90A49D1F8C8302038012202FAB2
:1049500000F01843C1F8C80070470549D1F8C430C9
:10496000012202FA00F01843C1F8C400704700BFEA
:104970000040074008B5FFF7D3FF034BD3F8C03022
:10498000B0FBF3F008BD00BF004007401F2808D966
:1049900008498B6C2038012202FA00F01843886421
:1049A000704704494B6C012202FA00F01843486436
:1049B000704700BF004007401F2809D909498B6C88
:1049C0002038012202FA00F023EA000088647047D0
:1049D00004494B6C012202FA00F023EA000048640B
:1049E000704700BF00400740074AD2F8083223F062
:1049F0007E4323F0870320F07E4020F0870023EAE7
:104A00000003C2F80832704700400740F0B587B095
:104A1000C168002900DAFF310912027E90F82430C3
:104A2000446B002C00DAFF34241290F8406090F8B8
:104A30004C70C56D002D00DAFF352D1290F868E03E
:104A400090F874000590CDF810E003950297019658
:104A500000940248FFF7DAFC07B0F0BD7C54000078
:104A600008B542B11A79012A05D11B68003318BF75
:104A7000012380F8B43090F8B4100248FFF7C6FC68
:104A800008BD00BFF05400000020704702207047AE
:104A900070B50446344B1A6822F010021A60334A8B
:104AA0009021C2F89410324E356825F400653560C7
:104AB000D1621D6825F008051D60C2F890101D68C0
:104AC00025F004051D60C2F88C10196821F0200142
:104AD00019608023C2F898306421FEF779FD002325
:104AE00002225A2104F11000FEF792FD0023022257
:104AF0005F2104F11C00FEF78BFD642104F1280006
:104B0000FEF766FD00230422502104F13800FEF771
:104B10007FFD002304225A2104F14400FEF778FDB2
:104B2000642104F15000FEF753FD012305221921F1
:104B300004F16000FEF76CFD012305220A2104F157
:104B40006C00FEF765FD6423A367FFF79FFF014636
:104B50000848FEF77DFBFFF759FD20B1002384F8DC
:104B6000B430FFF715FD70BD0420001C00800F401D
:104B70000020001C5C54000008B5FEF76BFA40B240
:104B800008BD00BF08B5FEF765FAC0B208BD00BF9A
:104B900010B50446FFF77CFF1220FFF7EDFF01463A
:104BA0002046FEF71BFDE168002900DAFF310912FB
:104BB00004F11000FEF732FDE168002900DAFF3150
:104BC000091204F11C00FEF729FD1320FFF7D4FFA2
:104BD000014604F12800FEF701FD616B002900DAAF
:104BE000FF31091204F13800FEF718FD616B00294E
:104BF00000DAFF31091204F14400FEF70FFD152021
:104C0000FFF7C0FF014604F15000FEF7E7FCE16D3D
:104C1000002900DAFF31091204F16000FEF7FEFC02
:104C2000E16D002900DAFF31091204F16C00FEF792
:104C3000F5FC94F8B4306BB104F178011420FFF75F
:104C4000C3F938B16423A36700231A460121204623
:104C5000FFF7DCFEFEF742FB1420FDF7F1FD9BE7BA
:104C600000B583B0084C2046FDF71CFE00230193DD
:104C70000423009323464FF4207204490448FDF7AF
:104C8000C3FDFCF773FDFEE7882D00027855000098
:104C9000914B000000F0D8B800F0F0B80A4B034484
:104CA00093F880309A0601D5303808E01A0701D50C
:104CB000573804E0DB064CBF37384FF0FF308842EE
:104CC000A8BF4FF0FF307047805500002DE9F84F26
:104CD000804615460346894629491C4614F8010BAF
:104CE000C8B10A1892F88020D20701D52346F4E70C
:104CF000302810D158789C1C00F0DF02582A06D1C9
:104D000035F010063AD1DC1C9878102508E0012611
:104D100035B9082504E00DB1002601E02E460A252C
:104D20000027BA46BB462946FFF7B8FF00280EDB2E
:104D300005FB07073B0C05FB0A3ABAF5803FBFB2FB
:104D400028BF4FF0010B14F8010B0126EBE7B9F176
:104D5000000F05D00EB1013C00E04446C9F8004008
:104D6000BBF1000F06D0074B22221A604FF0FF3034
:104D7000BDE8F88F47EA0A40BDE8F88F0126CFE783
:104D800080550000FC2B0002F7B50E46074605468D
:104D90001A48294611F8014B94B1031993F8803051
:104DA00013F0010301D00D46F3E72B2C06D02D2C78
:104DB0000ABF4FF4007400240D4601E00D461C4666
:104DC00001A92846FFF782FF26B1019B9D4208BF3B
:104DD0003B463360A30508D5404200280CDD084B54
:104DE00022221A604FF0004006E00028BFBF044BAB
:104DF00022221A606FF0004003B0F0BD8055000021
:104E0000FC2B000240EA01039B0730B510D1054698
:104E10000C46214628460B6855F8042B04349A4268
:104E200006D1A2F1013323EA020313F0803FF0D050
:104E300010F8013B11F8012B934201D0981A30BDB4
:104E4000002BF5D1184630BD40EA0103DB070346CD
:104E50000CD40346043A22BF51F804CB43F804CBE8
:104E6000B2F10402F7D2043208BF7047013A24BFFE
:104E700011F801CB03F801CBF8D87047034613F0C3
:104E8000030F0ED101F0FF0141EA012141EA014186
:104E9000043A24BF43F8041BB2F10402F9D202F130
:104EA0000402013A24BF03F8011BFAE77047FFFF31
:104EB00049444C4500FFFFFF546D72510000000053
:104EC000546D722053766300737461636B206F7648
:104ED0006572666C6F772066726F6D207461736B9C
:104EE0003A2025730A00000075765F68616C00FF48
:104EF000636F6E66696775726564206D7367207491
:104F00006F206265207265636569766564207769E4
:104F10007468206D7367206F626A2025750A00FF30
:104F200000800000001BB7002573204275696C6487
:104F3000206F6E2025730A000A25733A0A25730A2A
:104F40000A00000047697665206120636F6D6D611E
:104F50006E64206E616D65206173206120737472D0
:104F6000696E6720617267756D656E740A00000076
:104F700073617665640A00007265766572746564B3
:104F80000A00000025730A4275696C64206F6E2068
:104F900025730A3E00000000222573220A0000004B
:104FA0001B5B324B0D3E00003E000000436F6D6DF9
:104FB000616E642027257327206E6F7420666F75DD
:104FC0006E640A006F6E0000747275650000000068
:104FD0003100000068656C70000000004C6973745B
:104FE0007320616C6C20617661696C61626C652014
:104FF000636F6D6D616E6473000000006465760020
:105000004C6F6773207468652064657669636520FA
:105010006E616D6520616E64206275696C642064E8
:10502000617465006D616E00476976657320696E15
:10503000666F726D6174696F6E2066726F6D207439
:10504000686520636F6D6D616E642E2047697665BB
:105050002074686520636F6D6D616E64206E616D94
:10506000652061732074686520617267756D656E77
:10507000742E0A55736167653A206D616E20223C7B
:10508000636F6D6D616E645F6E616D653E220000E1
:10509000736176650000000053617665732061706E
:1050A000706C69636174696F6E2064617461206102
:1050B0006E642073657474696E677320746F206EFC
:1050C0006F6E2D766F6C6174696C6520666C6173B0
:1050D00068206D656D6F72792E00000072657665CF
:1050E000727400005265766572747320616C6C2076
:1050F0006368616E6765732065786365707420749A
:1051000068652064657669636520435243206E7547
:105110006D62657220746F20666163746F727920AE
:1051200064656661756C74732E0A546F20726573C2
:1051300065742074686520646576696365204352F0
:10514000432C2073657420697420746F203020779D
:10515000697468206120636F6D6D616E64202763E0
:1051600072632030272E0A5468652064657669636F
:1051700065206E6565647320746F206265207265BA
:105180007374617274656420666F72206368616E07
:1051900067657320746F2074616B65206566666552
:1051A00063742E0A546F20756E646F207265766585
:1051B00072742C20736176652063757272656E74EB
:1051C0002076616C75657320746F20666C617368FE
:1051D00020776974682027736176652720636F6D77
:1051E0006D616E642E0000007265736574000000CE
:1051F00055736167653A2072657365742028312F95
:1052000030295265736574732074686520636F6E0E
:1052100074726F6C6C657220696E7374616E746CFD
:10522000792E0A416C6C20756E73617665206D6F06
:1052300064696669636174696F6E732077696C6C09
:10524000206265206C6F73742E0A496620312069D4
:105250007320676976656E20617320616E206172CC
:1052600067756D656E742C2074686520737973742E
:10527000656D2077696C6C207573650A776174635E
:1052800068646F672074696D657220746F206D614A
:105290006B65206120686172647761726520726558
:1052A0007365742E20456C736520736F6674776127
:1052B00072650A726573657420697320646F6E6528
:1052C0002E00FFFF00000000D44F0000DC4F000064
:1052D0008D32000001000000FC4F00000050000073
:1052E0006D31000002000000245000002850000032
:1052F0008D31000003000000905000009850000025
:105300002932000004000000DC500000E4500000DE
:105310003D32000005000000E8510000F05100009F
:105320000932000000100004542C000201000000AB
:105330000B1000010C2E00020300000010100104ED
:10534000582C000203000000111001045C2C000224
:105350000300000017100002102E000203000000DE
:1053600018100744602C00020100000000140244E1
:10537000142E000203000000001608441C2E000238
:105380000300000081010000FF0000000000000099
:10539000000000000000000000000000000000000D
:1053A000000000000000000000000000434F4E46D7
:1053B00049475F5441524745545F4C50433135345F
:1053C000390000001B5B4B4E4D490D001B5B4B48E9
:1053D0006172644661756C740D0000001B5B4B4D7F
:1053E000656D4D616E6167650D0000001B5B4B4292
:1053F00075734661756C740D000000001B5B4B55A6
:10540000736167654661756C740D00001B5B4B44EE
:10541000656661756C740D00286E756C6C2900FFF3
:10542000466C617368696E672025752062797465C2
:10543000730A00004A756E20323220323031372034
:1054400031303A31383A3038000000006573625F1D
:10545000313163382D646972747900FF00000000F7
:10546000FC540000045500000D4A0000010000003B
:105470003855000040550000614A0000535953540C
:10548000454D205354415455533A0A4D6F746F7231
:105490002074656D70657261747572653A20256956
:1054A000204320282575202575290A4879647261D2
:1054B000756C6963206F696C2074656D70657261CD
:1054C000747572653A2025692043202825752025AA
:1054D00075290A4675656C206C6576656C3A2025E1
:1054E0007520252520282575202575290A0000000E
:1054F0006563686F3A2025750A0000007374617453
:1055000000000000446973706C61797320746865F1
:105510002073797374656D20737461747573206979
:105520006E666F726D6174696F6E2E0A5573616776
:10553000653A2073746174006563686F0000000051
:10554000436F6E74696E756F75736C7920656368EF
:105550006F65732073746174757320746F20737436
:10556000646F75742E0A55736167653A20656368C8
:105570006F203C312F303E007374657000000000D6
:10558000000000000000000000000000000000001B
:10559000000000000000000000000000000000000B
:1055A00000000000000000000000000000000000FB
:1055B00000000000000000000000000000000000EB
:1055C00000000000000000000000000000000000DB
:1055D00000000000000000000000000000000000CB
:1055E00000000000000000000000000000000000BB
:1055F00000000000000000000000000000000000AB
:105600004040404040404040404141414141404095
:10561000404040404040404040404040404040408A
:105620000502020202020202020202020202020257
:10563000202020202020202020200202020202021E
:105640000290909090909010101010101010101068
:105650001010101010101010101010020202020290
:1056600002888888888888080808080808080808C0
:10567000080808080808080808080802020202408A
:10568000000000000000000000000000000000001A
:10569000000000000000000000000000000000000A
:1056A00000000000000000000000000000000000FA
:1056B00000000000000000000000000000000000EA
:1056C00000000000000000000000000000000000DA
:1056D00000000000000000000000000000000000CA
:1056E00000000000000000000000000000000000BA
:1056F00000000000000000000000000000000000AA
:10570000AAAAAAAA08270000F02B000204000000A1
:0C571000010000004C5400003454000064
:040000030000118D5B
:00000001FF
